{
  "_format": "hh-sol-artifact-1",
  "contractName": "LazyMarketplace",
  "sourceName": "contracts/LazyMaketplace.sol",
  "abi": [
    {
      "anonymous": false,
      "inputs": [
        {
          "indexed": false,
          "internalType": "address",
          "name": "_address",
          "type": "address"
        },
        {
          "indexed": false,
          "internalType": "uint256",
          "name": "_id",
          "type": "uint256"
        },
        {
          "indexed": false,
          "internalType": "address",
          "name": "_seller",
          "type": "address"
        },
        {
          "indexed": false,
          "internalType": "address",
          "name": "_maxBidder",
          "type": "address"
        },
        {
          "indexed": false,
          "internalType": "uint256",
          "name": "_maxBid",
          "type": "uint256"
        },
        {
          "indexed": false,
          "internalType": "uint256",
          "name": "_amount",
          "type": "uint256"
        },
        {
          "indexed": false,
          "internalType": "bool",
          "name": "_success",
          "type": "bool"
        }
      ],
      "name": "AuctionEnded",
      "type": "event"
    },
    {
      "anonymous": false,
      "inputs": [
        {
          "indexed": false,
          "internalType": "address",
          "name": "_address",
          "type": "address"
        },
        {
          "indexed": false,
          "internalType": "uint256",
          "name": "_id",
          "type": "uint256"
        },
        {
          "indexed": false,
          "internalType": "address",
          "name": "_seller",
          "type": "address"
        },
        {
          "indexed": false,
          "internalType": "address",
          "name": "_bidder",
          "type": "address"
        },
        {
          "indexed": false,
          "internalType": "uint256",
          "name": "_value",
          "type": "uint256"
        }
      ],
      "name": "BidAdded",
      "type": "event"
    },
    {
      "anonymous": false,
      "inputs": [
        {
          "indexed": false,
          "internalType": "address",
          "name": "_address",
          "type": "address"
        },
        {
          "indexed": false,
          "internalType": "uint256",
          "name": "_id",
          "type": "uint256"
        },
        {
          "indexed": false,
          "internalType": "address",
          "name": "_seller",
          "type": "address"
        },
        {
          "indexed": false,
          "internalType": "uint256",
          "name": "_amount",
          "type": "uint256"
        },
        {
          "indexed": false,
          "internalType": "uint256",
          "name": "_price",
          "type": "uint256"
        },
        {
          "indexed": false,
          "internalType": "address",
          "name": "_buyer",
          "type": "address"
        }
      ],
      "name": "Bought",
      "type": "event"
    },
    {
      "anonymous": false,
      "inputs": [
        {
          "indexed": false,
          "internalType": "address",
          "name": "_address",
          "type": "address"
        },
        {
          "indexed": false,
          "internalType": "uint256",
          "name": "_id",
          "type": "uint256"
        },
        {
          "indexed": false,
          "internalType": "address",
          "name": "_seller",
          "type": "address"
        },
        {
          "indexed": false,
          "internalType": "uint256",
          "name": "_amount",
          "type": "uint256"
        },
        {
          "indexed": false,
          "internalType": "uint256",
          "name": "_price",
          "type": "uint256"
        },
        {
          "indexed": false,
          "internalType": "enum Exchange.SaleType",
          "name": "_type",
          "type": "uint8"
        },
        {
          "indexed": false,
          "internalType": "uint256",
          "name": "_endTime",
          "type": "uint256"
        }
      ],
      "name": "ItemUpdated",
      "type": "event"
    },
    {
      "anonymous": false,
      "inputs": [
        {
          "indexed": false,
          "internalType": "address",
          "name": "_address",
          "type": "address"
        },
        {
          "indexed": false,
          "internalType": "uint256",
          "name": "_auctionId",
          "type": "uint256"
        },
        {
          "indexed": false,
          "internalType": "address",
          "name": "_seller",
          "type": "address"
        },
        {
          "indexed": false,
          "internalType": "address",
          "name": "_maxBidder",
          "type": "address"
        },
        {
          "indexed": false,
          "internalType": "uint256",
          "name": "_maxBid",
          "type": "uint256"
        },
        {
          "indexed": false,
          "internalType": "uint256",
          "name": "_amount",
          "type": "uint256"
        },
        {
          "indexed": false,
          "internalType": "bool",
          "name": "_success",
          "type": "bool"
        },
        {
          "indexed": false,
          "internalType": "uint256",
          "name": "_tokenId",
          "type": "uint256"
        }
      ],
      "name": "LazyAuctionEnded",
      "type": "event"
    },
    {
      "anonymous": false,
      "inputs": [
        {
          "indexed": false,
          "internalType": "address",
          "name": "_address",
          "type": "address"
        },
        {
          "indexed": false,
          "internalType": "uint256",
          "name": "_auctionId",
          "type": "uint256"
        },
        {
          "indexed": false,
          "internalType": "address",
          "name": "_seller",
          "type": "address"
        },
        {
          "indexed": false,
          "internalType": "address",
          "name": "_bidder",
          "type": "address"
        },
        {
          "indexed": false,
          "internalType": "uint256",
          "name": "_value",
          "type": "uint256"
        }
      ],
      "name": "LazyBidAdded",
      "type": "event"
    },
    {
      "anonymous": false,
      "inputs": [
        {
          "indexed": false,
          "internalType": "address",
          "name": "_bidder",
          "type": "address"
        },
        {
          "indexed": false,
          "internalType": "uint256",
          "name": "_value",
          "type": "uint256"
        }
      ],
      "name": "Withdrawn",
      "type": "event"
    },
    {
      "inputs": [
        {
          "internalType": "uint256",
          "name": "",
          "type": "uint256"
        }
      ],
      "name": "auctionExists",
      "outputs": [
        {
          "internalType": "bool",
          "name": "",
          "type": "bool"
        }
      ],
      "stateMutability": "view",
      "type": "function"
    },
    {
      "inputs": [
        {
          "internalType": "address",
          "name": "",
          "type": "address"
        },
        {
          "internalType": "uint256",
          "name": "",
          "type": "uint256"
        },
        {
          "internalType": "address",
          "name": "",
          "type": "address"
        }
      ],
      "name": "auctionItems",
      "outputs": [
        {
          "internalType": "uint256",
          "name": "amount",
          "type": "uint256"
        },
        {
          "internalType": "uint256",
          "name": "maxBid",
          "type": "uint256"
        },
        {
          "internalType": "address",
          "name": "maxBidder",
          "type": "address"
        },
        {
          "internalType": "uint256",
          "name": "endTime",
          "type": "uint256"
        },
        {
          "internalType": "bool",
          "name": "ended",
          "type": "bool"
        }
      ],
      "stateMutability": "view",
      "type": "function"
    },
    {
      "inputs": [
        {
          "internalType": "address",
          "name": "_address",
          "type": "address"
        },
        {
          "internalType": "uint256",
          "name": "_id",
          "type": "uint256"
        },
        {
          "internalType": "address",
          "name": "_seller",
          "type": "address"
        }
      ],
      "name": "bid",
      "outputs": [],
      "stateMutability": "payable",
      "type": "function"
    },
    {
      "inputs": [
        {
          "internalType": "address",
          "name": "_tokenAddress",
          "type": "address"
        },
        {
          "internalType": "uint256",
          "name": "_amount",
          "type": "uint256"
        },
        {
          "internalType": "address",
          "name": "_creator",
          "type": "address"
        },
        {
          "internalType": "uint256",
          "name": "_minBid",
          "type": "uint256"
        },
        {
          "internalType": "uint256",
          "name": "_endTime",
          "type": "uint256"
        },
        {
          "internalType": "string",
          "name": "_uri",
          "type": "string"
        },
        {
          "internalType": "uint256",
          "name": "_royal",
          "type": "uint256"
        },
        {
          "internalType": "uint256",
          "name": "_auctionId",
          "type": "uint256"
        },
        {
          "internalType": "bytes",
          "name": "_signature",
          "type": "bytes"
        }
      ],
      "name": "bidLazy",
      "outputs": [],
      "stateMutability": "payable",
      "type": "function"
    },
    {
      "inputs": [
        {
          "internalType": "address",
          "name": "_address",
          "type": "address"
        },
        {
          "internalType": "uint256",
          "name": "_id",
          "type": "uint256"
        },
        {
          "internalType": "address",
          "name": "_seller",
          "type": "address"
        },
        {
          "internalType": "uint256",
          "name": "_amount",
          "type": "uint256"
        }
      ],
      "name": "buy",
      "outputs": [],
      "stateMutability": "payable",
      "type": "function"
    },
    {
      "inputs": [
        {
          "internalType": "address",
          "name": "_tokenAddress",
          "type": "address"
        },
        {
          "internalType": "uint256",
          "name": "_amount",
          "type": "uint256"
        },
        {
          "internalType": "address",
          "name": "_creator",
          "type": "address"
        },
        {
          "internalType": "uint256",
          "name": "_unitPrice",
          "type": "uint256"
        },
        {
          "internalType": "string",
          "name": "_uri",
          "type": "string"
        },
        {
          "internalType": "uint256",
          "name": "_royal",
          "type": "uint256"
        },
        {
          "internalType": "bytes",
          "name": "_signature",
          "type": "bytes"
        },
        {
          "internalType": "uint256",
          "name": "_buyAmount",
          "type": "uint256"
        }
      ],
      "name": "buyLazy",
      "outputs": [],
      "stateMutability": "payable",
      "type": "function"
    },
    {
      "inputs": [
        {
          "internalType": "address",
          "name": "_address",
          "type": "address"
        },
        {
          "internalType": "uint256",
          "name": "_id",
          "type": "uint256"
        },
        {
          "internalType": "address",
          "name": "_seller",
          "type": "address"
        }
      ],
      "name": "endAuction",
      "outputs": [],
      "stateMutability": "nonpayable",
      "type": "function"
    },
    {
      "inputs": [
        {
          "internalType": "address",
          "name": "_tokenAddress",
          "type": "address"
        },
        {
          "internalType": "uint256",
          "name": "_amount",
          "type": "uint256"
        },
        {
          "internalType": "address",
          "name": "_creator",
          "type": "address"
        },
        {
          "internalType": "uint256",
          "name": "_minBid",
          "type": "uint256"
        },
        {
          "internalType": "uint256",
          "name": "_endTime",
          "type": "uint256"
        },
        {
          "internalType": "string",
          "name": "_uri",
          "type": "string"
        },
        {
          "internalType": "uint256",
          "name": "_royal",
          "type": "uint256"
        },
        {
          "internalType": "uint256",
          "name": "_auctionId",
          "type": "uint256"
        },
        {
          "internalType": "bytes",
          "name": "_signature",
          "type": "bytes"
        }
      ],
      "name": "endAuctionLazy",
      "outputs": [],
      "stateMutability": "payable",
      "type": "function"
    },
    {
      "inputs": [
        {
          "internalType": "address",
          "name": "",
          "type": "address"
        },
        {
          "internalType": "uint256",
          "name": "",
          "type": "uint256"
        },
        {
          "internalType": "address",
          "name": "",
          "type": "address"
        }
      ],
      "name": "fixedItems",
      "outputs": [
        {
          "internalType": "uint256",
          "name": "amount",
          "type": "uint256"
        },
        {
          "internalType": "uint256",
          "name": "price",
          "type": "uint256"
        }
      ],
      "stateMutability": "view",
      "type": "function"
    },
    {
      "inputs": [
        {
          "internalType": "address",
          "name": "_payee",
          "type": "address"
        },
        {
          "internalType": "uint256",
          "name": "_percent",
          "type": "uint256"
        }
      ],
      "name": "initialize",
      "outputs": [],
      "stateMutability": "nonpayable",
      "type": "function"
    },
    {
      "inputs": [
        {
          "internalType": "address",
          "name": "_collection",
          "type": "address"
        }
      ],
      "name": "isRoyalCollection",
      "outputs": [
        {
          "internalType": "bool",
          "name": "",
          "type": "bool"
        }
      ],
      "stateMutability": "view",
      "type": "function"
    },
    {
      "inputs": [
        {
          "internalType": "uint256",
          "name": "",
          "type": "uint256"
        }
      ],
      "name": "lazyAuctions",
      "outputs": [
        {
          "internalType": "uint256",
          "name": "amount",
          "type": "uint256"
        },
        {
          "internalType": "uint256",
          "name": "maxBid",
          "type": "uint256"
        },
        {
          "internalType": "address",
          "name": "maxBidder",
          "type": "address"
        },
        {
          "internalType": "uint256",
          "name": "endTime",
          "type": "uint256"
        },
        {
          "internalType": "bool",
          "name": "ended",
          "type": "bool"
        }
      ],
      "stateMutability": "view",
      "type": "function"
    },
    {
      "inputs": [],
      "name": "marketPayee",
      "outputs": [
        {
          "internalType": "address",
          "name": "",
          "type": "address"
        }
      ],
      "stateMutability": "view",
      "type": "function"
    },
    {
      "inputs": [],
      "name": "marketPercent",
      "outputs": [
        {
          "internalType": "uint256",
          "name": "",
          "type": "uint256"
        }
      ],
      "stateMutability": "view",
      "type": "function"
    },
    {
      "inputs": [
        {
          "internalType": "address",
          "name": "",
          "type": "address"
        }
      ],
      "name": "pendingWithdraws",
      "outputs": [
        {
          "internalType": "uint256",
          "name": "",
          "type": "uint256"
        }
      ],
      "stateMutability": "view",
      "type": "function"
    },
    {
      "inputs": [
        {
          "internalType": "address",
          "name": "_address",
          "type": "address"
        },
        {
          "internalType": "uint256",
          "name": "_id",
          "type": "uint256"
        },
        {
          "internalType": "uint256",
          "name": "_amount",
          "type": "uint256"
        },
        {
          "internalType": "uint256",
          "name": "_minPrice",
          "type": "uint256"
        },
        {
          "internalType": "uint256",
          "name": "_endTime",
          "type": "uint256"
        }
      ],
      "name": "putOnAuction",
      "outputs": [],
      "stateMutability": "nonpayable",
      "type": "function"
    },
    {
      "inputs": [
        {
          "internalType": "address",
          "name": "_address",
          "type": "address"
        },
        {
          "internalType": "uint256",
          "name": "_id",
          "type": "uint256"
        },
        {
          "internalType": "uint256",
          "name": "_amount",
          "type": "uint256"
        },
        {
          "internalType": "uint256",
          "name": "_price",
          "type": "uint256"
        }
      ],
      "name": "putOnSale",
      "outputs": [],
      "stateMutability": "nonpayable",
      "type": "function"
    },
    {
      "inputs": [
        {
          "internalType": "address",
          "name": "",
          "type": "address"
        },
        {
          "internalType": "uint256",
          "name": "",
          "type": "uint256"
        },
        {
          "internalType": "address",
          "name": "",
          "type": "address"
        }
      ],
      "name": "saleType",
      "outputs": [
        {
          "internalType": "enum Exchange.SaleType",
          "name": "",
          "type": "uint8"
        }
      ],
      "stateMutability": "view",
      "type": "function"
    },
    {
      "inputs": [
        {
          "internalType": "address",
          "name": "_payee",
          "type": "address"
        }
      ],
      "name": "setMarketPayee",
      "outputs": [],
      "stateMutability": "nonpayable",
      "type": "function"
    },
    {
      "inputs": [
        {
          "internalType": "uint256",
          "name": "_percent",
          "type": "uint256"
        }
      ],
      "name": "setMarketPercent",
      "outputs": [],
      "stateMutability": "nonpayable",
      "type": "function"
    },
    {
      "inputs": [
        {
          "internalType": "address",
          "name": "_address",
          "type": "address"
        },
        {
          "internalType": "uint256",
          "name": "_id",
          "type": "uint256"
        }
      ],
      "name": "takeOffAuction",
      "outputs": [],
      "stateMutability": "nonpayable",
      "type": "function"
    },
    {
      "inputs": [
        {
          "internalType": "address",
          "name": "_tokenAddress",
          "type": "address"
        },
        {
          "internalType": "uint256",
          "name": "_amount",
          "type": "uint256"
        },
        {
          "internalType": "address",
          "name": "_creator",
          "type": "address"
        },
        {
          "internalType": "uint256",
          "name": "_minBid",
          "type": "uint256"
        },
        {
          "internalType": "uint256",
          "name": "_endTime",
          "type": "uint256"
        },
        {
          "internalType": "string",
          "name": "_uri",
          "type": "string"
        },
        {
          "internalType": "uint256",
          "name": "_royal",
          "type": "uint256"
        },
        {
          "internalType": "uint256",
          "name": "_auctionId",
          "type": "uint256"
        },
        {
          "internalType": "bytes",
          "name": "_signature",
          "type": "bytes"
        }
      ],
      "name": "takeOffAuctionLazy",
      "outputs": [],
      "stateMutability": "nonpayable",
      "type": "function"
    },
    {
      "inputs": [
        {
          "internalType": "address",
          "name": "_address",
          "type": "address"
        },
        {
          "internalType": "uint256",
          "name": "_id",
          "type": "uint256"
        }
      ],
      "name": "takeOffSale",
      "outputs": [],
      "stateMutability": "nonpayable",
      "type": "function"
    },
    {
      "inputs": [],
      "name": "withdraw",
      "outputs": [],
      "stateMutability": "nonpayable",
      "type": "function"
    }
  ],
  "bytecode": "0x608060405234801561001057600080fd5b50613861806100206000396000f3fe60806040526004361061014b5760003560e01c8063525aa6bf116100b6578063947234951161006f5780639472349514610489578063b3ffb760146104a9578063cd6dc687146104bc578063cff3170b146104dc578063d1fa77de14610534578063fa14d4811461054757600080fd5b8063525aa6bf146103c55780635d059164146104035780635dc952c2146104165780635e7510001461043657806364f5fdac14610449578063710eec461461046957600080fd5b80633ab54026116101085780633ab540261461020e5780633c0868f0146102ac5780633ccfd60b146102ec578063460a38cb14610301578063465e4337146103215780634ba71fac1461037857600080fd5b806301210b6b146101505780630556f4f3146101725780630cd9ad301461019b5780630d6dacdf146101bb57806312e28aa0146101db57806325b0c182146101fb575b600080fd5b34801561015c57600080fd5b5061017061016b366004613030565b610574565b005b34801561017e57600080fd5b5061018860055481565b6040519081526020015b60405180910390f35b3480156101a757600080fd5b506101706101b6366004612fca565b6108cf565b3480156101c757600080fd5b506101706101d6366004613286565b610929565b3480156101e757600080fd5b506101706101f6366004613004565b610c70565b610170610209366004613179565b610dc9565b34801561021a57600080fd5b50610274610229366004613030565b6002602081815260009485526040808620825293855283852090529083529120805460018201549282015460038301546004909301549193926001600160a01b039091169160ff1685565b6040805195865260208601949094526001600160a01b039092169284019290925260608301919091521515608082015260a001610192565b3480156102b857600080fd5b506102dc6102c73660046132ec565b60076020526000908152604090205460ff1681565b6040519015158152602001610192565b3480156102f857600080fd5b50610170611134565b34801561030d57600080fd5b5061017061031c3660046132ec565b6111c6565b34801561032d57600080fd5b5061027461033c3660046132ec565b60066020526000908152604090208054600182015460028301546003840154600490940154929391926001600160a01b03909116919060ff1685565b34801561038457600080fd5b506103b8610393366004613030565b6000602081815293815260408082208552928152828120909352825290205460ff1681565b6040516101929190613598565b3480156103d157600080fd5b506004546103eb906201000090046001600160a01b031681565b6040516001600160a01b039091168152602001610192565b610170610411366004613179565b6111fb565b34801561042257600080fd5b5061017061043136600461324b565b6115cb565b610170610444366004613030565b6117ea565b34801561045557600080fd5b50610170610464366004613179565b611ade565b34801561047557600080fd5b506102dc610484366004612fca565b611d3e565b34801561049557600080fd5b506101706104a4366004613004565b611dc5565b6101706104b7366004613072565b611e31565b3480156104c857600080fd5b506101706104d7366004613004565b6121de565b3480156104e857600080fd5b5061051f6104f7366004613030565b6001602081815260009485526040808620825293855283852090529083529120805491015482565b60408051928352602083019190915201610192565b6101706105423660046130ba565b6122c0565b34801561055357600080fd5b50610188610562366004612fca565b60036020526000908152604090205481565b8260016001600160a01b0380861660009081526020818152604080832088845282528083209387168352929052205460ff1660018111156105b7576105b7613800565b146106005760405162461bcd60e51b81526020600482015260146024820152732a37b5b2b7103737ba1034b71030bab1ba34b7b760611b60448201526064015b60405180910390fd5b6001600160a01b03808516600090815260026020908152604080832087845282528083209386168352929052206004015460ff161515600114156106765760405162461bcd60e51b815260206004820152600d60248201526c105d58dd1a5bdb88195b991959609a1b60448201526064016105f7565b6001600160a01b0384811660009081526002602090815260408083208784528252808320868516808552925291829020549151627eeac760e11b8152600481019190915260248101869052909183169062fdd58e9060440160206040518083038186803b1580156106e657600080fd5b505afa1580156106fa573d6000803e3d6000fd5b505050506040513d601f19601f8201168201806040525081019061071e9190613305565b101561076c5760405162461bcd60e51b815260206004820152601e60248201527f53656c6c6572206e6f7420656e6f75676820746f6b656e20737570706c79000060448201526064016105f7565b6001600160a01b03848116600090815260026020818152604080842088855282528084208786168552909152918290209081015490549151637921219560e11b81528484169363f242432a936107cc938893921691899190600401613369565b600060405180830381600087803b1580156107e657600080fd5b505af11580156107fa573d6000803e3d6000fd5b5050506001600160a01b03808616600090815260026020908152604080832088845282528083209387168352929052206001015461083e915085908590859061268a565b6001600160a01b038481166000908152600260208181526040808420888552825280842087861685529091529182902060048101805460ff191660019081179091559181015482820154915493517f9759a92d44539ecf2e83312d1217471b39e25befce832d6a43164de4c2ce6712956108c1958b958b958b95909316936133a1565b60405180910390a150505050565b6004546201000090046001600160a01b031633146108ff5760405162461bcd60e51b81526004016105f790613649565b600480546001600160a01b03909216620100000262010000600160b01b0319909216919091179055565b604051627eeac760e11b815233600482015260248101859052859085908590839082906001600160a01b0383169062fdd58e9060440160206040518083038186803b15801561097757600080fd5b505afa15801561098b573d6000803e3d6000fd5b505050506040513d601f19601f820116820180604052508101906109af9190613305565b10156109cd5760405162461bcd60e51b81526004016105f790613612565b60405163e985e9c560e01b815233600482018190523060248301528a918a919083906001600160a01b0382169063e985e9c59060440160206040518083038186803b158015610a1b57600080fd5b505afa158015610a2f573d6000803e3d6000fd5b505050506040513d601f19601f82011682018060405250810190610a5391906132ca565b610a6f5760405162461bcd60e51b81526004016105f7906135d1565b6001600160a01b038d1660009081526001602090815260408083208f8452825280832033845290915290205415610ae15760405162461bcd60e51b8152602060048201526016602482015275546f6b656e20697320696e2066697865642073616c6560501b60448201526064016105f7565b6001600160a01b038d166000908152602081815260408083208f84528252808320338452825291829020805460ff19166001908117909155825160a081019093528d835290820190610b34908d9061291c565b815260200160006001600160a01b031681526020018a815260200160001515815250600260008f6001600160a01b03166001600160a01b0316815260200190815260200160002060008e81526020019081526020016000206000336001600160a01b03166001600160a01b03168152602001908152602001600020600082015181600001556020820151816001015560408201518160020160006101000a8154816001600160a01b0302191690836001600160a01b031602179055506060820151816003015560808201518160040160006101000a81548160ff0219169083151502179055509050507f374ad07874f8cd2d9da1821e3d0811f3f8a722b476a2926046365876ee5cb7fb8d8d338e8e60018f604051610c59979695949392919061342f565b60405180910390a150505050505050505050505050565b6001600160a01b0382166000908152600260209081526040808320848452825280832033845290915290206004015460ff1615610ce85760405162461bcd60e51b815260206004820152601660248201527524ba32b69034b9903737ba1037b71030bab1ba34b7b760511b60448201526064016105f7565b6001600160a01b0380831660009081526002602081815260408084208685528252808420338552825280842060048101805460ff1916600190811790915581015493015490941683526003905291902054610d429161292f565b6001600160a01b038084166000908152600260208181526040808420878552825280842033808652908352818520909301549094168352600390528282209390935590517f9759a92d44539ecf2e83312d1217471b39e25befce832d6a43164de4c2ce671292610dbd928692869291908190819081906133a1565b60405180910390a15050565b60008b8b8b8b8b8b8b8a8c604051602001610dec99989796959493929190613502565b604051602081830303815290604052805190602001209050610e4783838080601f0160208091040260200160405190810160405280939291908181526020018383808284376000920191909152508592508e915061293b9050565b610e635760405162461bcd60e51b81526004016105f7906135a6565b88341015610ea85760405162461bcd60e51b8152602060048201526012602482015271494e53554646494349454e545f46554e445360701b60448201526064016105f7565b87421115610eea5760405162461bcd60e51b815260206004820152600f60248201526e105550d51253d397d1561412549151608a1b60448201526064016105f7565b60008481526007602052604090205460ff16610fe55760016007600086815260200190815260200160002060006101000a81548160ff0219169083151502179055506040518060a001604052808c8152602001348152602001336001600160a01b031681526020018981526020016000151581525060066000868152602001908152602001600020600082015181600001556020820151816001015560408201518160020160006101000a8154816001600160a01b0302191690836001600160a01b031602179055506060820151816003015560808201518160040160006101000a81548160ff0219169083151502179055509050506110cb565b60008481526006602052604090206001015434116110455760405162461bcd60e51b815260206004820152601d60248201527f546865726520616c72656164792069732061206869676865722062696400000060448201526064016105f7565b600084815260066020908152604080832060018101546002909101546001600160a01b0316845260039092529091205461107e9161292f565b60008581526006602081815260408084206002810180546001600160a01b03168652600384529185209590955592889052523460019092019190915580546001600160a01b031916331790555b604080516001600160a01b03808f168252602082018790528c16918101919091523360608201523460808201527fb852e89172c753bc4372f8aa2577a8a1996c09c516a4e9f50b297ba3baceede99060a0015b60405180910390a1505050505050505050505050565b3360008181526003602052604080822054905181156108fc0292818181858888f1935050505015801561116b573d6000803e3d6000fd5b5033600081815260036020908152604091829020548251938452908301527f7084f5476618d8e60b11ef0d7d3f06914655adb8793e28ff7f018d4c76d505d5910160405180910390a133600090815260036020526040812055565b6004546201000090046001600160a01b031633146111f65760405162461bcd60e51b81526004016105f790613649565b600555565b60008b8b8b8b8b8b8b8a8c60405160200161121e99989796959493929190613502565b60405160208183030381529060405280519060200120905061127983838080601f0160208091040260200160405190810160405280939291908181526020018383808284376000920191909152508592508e915061293b9050565b6112955760405162461bcd60e51b81526004016105f7906135a6565b60008481526007602052604090205460ff166112ec5760405162461bcd60e51b8152602060048201526016602482015275105550d51253d397d113d154d7d393d517d1561254d560521b60448201526064016105f7565b60008481526006602052604090206004015460ff16156113465760405162461bcd60e51b8152602060048201526015602482015274105550d51253d397d053149150511657d153911151605a1b60448201526064016105f7565b60008c6001600160a01b03166345dfdd948c8e8b8b8b6040518663ffffffff1660e01b815260040161137c95949392919061355e565b602060405180830381600087803b15801561139657600080fd5b505af11580156113aa573d6000803e3d6000fd5b505050506040513d601f19601f820116820180604052508101906113ce9190613305565b90508c6001600160a01b031663f242432a8c6006600089815260200190815260200160002060020160009054906101000a90046001600160a01b031684600660008b8152602001908152602001600020600001546040518563ffffffff1660e01b81526004016114419493929190613369565b600060405180830381600087803b15801561145b57600080fd5b505af115801561146f573d6000803e3d6000fd5b505050600086815260066020526040812060048101805460ff1916600190811790915501546005549092506114b390612710906114ad9085906129ba565b906129c6565b6004546040519192506201000090046001600160a01b0316906108fc8315029083906000818181858888f193505050501580156114f4573d6000803e3d6000fd5b506001600160a01b038d166108fc61150c848461291c565b6040518115909202916000818181858888f19350505050158015611534573d6000803e3d6000fd5b507fbb37a0b8751bfed3e9c1dca6e57fc48dbc8c6607ec9df31095e1072ef2dc8ffa8f888f600660008c815260200190815260200160002060020160009054906101000a90046001600160a01b031686600660008e81526020019081526020016000206000015460018a6040516115b29897969594939291906133e5565b60405180910390a1505050505050505050505050505050565b604051627eeac760e11b815233600482015260248101849052849084908490839082906001600160a01b0383169062fdd58e9060440160206040518083038186803b15801561161957600080fd5b505afa15801561162d573d6000803e3d6000fd5b505050506040513d601f19601f820116820180604052508101906116519190613305565b101561166f5760405162461bcd60e51b81526004016105f790613612565b60405163e985e9c560e01b81523360048201819052306024830152899189919083906001600160a01b0382169063e985e9c59060440160206040518083038186803b1580156116bd57600080fd5b505afa1580156116d1573d6000803e3d6000fd5b505050506040513d601f19601f820116820180604052508101906116f591906132ca565b6117115760405162461bcd60e51b81526004016105f7906135d1565b6001600160a01b038c1660009081526002602090815260408083208e8452825280832033845290915281206004015460ff16151560011480159061177f57506001600160a01b038d1660009081526002602090815260408083208f8452825280832033845290915290205415155b905080156117cf5760405162461bcd60e51b815260206004820152601860248201527f546f6b656e20697320696e2061756374696f6e2073616c65000000000000000060448201526064016105f7565b6117db8d8d8d8d6129d2565b50505050505050505050505050565b60016001600160a01b0380851660009081526020818152604080832087845282528083209386168352929052205460ff16600181111561182c5761182c613800565b146118705760405162461bcd60e51b81526020600482015260146024820152732a37b5b2b7103737ba1034b71030bab1ba34b7b760611b60448201526064016105f7565b6001600160a01b03808416600090815260026020908152604080832086845282528083209385168352929052206004015460ff161515600114156118e65760405162461bcd60e51b815260206004820152600d60248201526c105d58dd1a5bdb88195b991959609a1b60448201526064016105f7565b6001600160a01b0380841660009081526002602090815260408083208684528252808320938516835292905220600301544211156119585760405162461bcd60e51b815260206004820152600f60248201526e105d58dd1a5bdb88195e1c1a5c9959608a1b60448201526064016105f7565b6001600160a01b03808416600090815260026020908152604080832086845282528083209385168352929052206001015434116119d75760405162461bcd60e51b815260206004820152601d60248201527f546865726520616c72656164792069732061206869676865722062696400000060448201526064016105f7565b6001600160a01b038084166000908152600260208181526040808420878552825280842086861685528252808420600181015493015490941683526003905291902054611a239161292f565b6001600160a01b03848116600081815260026020818152604080842089855282528084208887168086528184528286209485018054909816865260038452828620989098553460019094018490559387905292815284546001600160a01b031916339081179095558251938452830187905290820193909352606081019190915260808101919091527f7aaaf9649d5f33a41e6d052db876b6253e362d6e6ff1317c04a67695b85845719060a00160405180910390a1505050565b611b5482828080601f01602080910402602001604051908101604052809392919081815260200183838082843760009201919091525050604051611b3892508f91508e908e908e908e908e908e908d908f90602001613502565b604051602081830303815290604052805190602001208b61293b565b611b705760405162461bcd60e51b81526004016105f7906135a6565b60008381526007602052604090205460ff16611bc75760405162461bcd60e51b8152602060048201526016602482015275105550d51253d397d113d154d7d393d517d1561254d560521b60448201526064016105f7565b60008381526006602052604090206004015460ff1615611c215760405162461bcd60e51b8152602060048201526015602482015274105550d51253d397d053149150511657d153911151605a1b60448201526064016105f7565b600083815260066020908152604080832060018101546002909101546001600160a01b03168452600390925290912054611c5a9161292f565b600360006006600087815260200190815260200160002060020160009054906101000a90046001600160a01b03166001600160a01b03166001600160a01b03168152602001908152602001600020819055507fbb37a0b8751bfed3e9c1dca6e57fc48dbc8c6607ec9df31095e1072ef2dc8ffa8b848b6006600088815260200190815260200160002060020160009054906101000a90046001600160a01b031660066000898152602001908152602001600020600101548f600080604051611d299897969594939291906133e5565b60405180910390a15050505050505050505050565b6040516301ffc9a760e01b815263162e074f60e11b60048201526000906001600160a01b038316906301ffc9a79060240160206040518083038186803b158015611d8757600080fd5b505afa158015611d9b573d6000803e3d6000fd5b505050506040513d601f19601f82011682018060405250810190611dbf91906132ca565b92915050565b6001600160a01b038216600090815260016020818152604080842085855282528084203380865292528084208481559092015491517f374ad07874f8cd2d9da1821e3d0811f3f8a722b476a2926046365876ee5cb7fb93610dbd9387938793909291908290819061342f565b8360006001600160a01b0380871660009081526020818152604080832089845282528083209388168352929052205460ff166001811115611e7457611e74613800565b14611eba5760405162461bcd60e51b815260206004820152601660248201527514d85b19481d1e5c19481a5cc81b9bdd08199a5e195960521b60448201526064016105f7565b6001600160a01b038086166000908152600160209081526040808320888452825280832093871683529290522054821115611f375760405162461bcd60e51b815260206004820152601860248201527f4e6f7420656e6f756768206974656d7320696e2073616c65000000000000000060448201526064016105f7565b6001600160a01b0380861660009081526001602081815260408084208985528252808420948816845293905291902001543490611f7490846129ba565b14611fc15760405162461bcd60e51b815260206004820152601760248201527f4e6f7420656e6f7567682066756e6420746f2073656e6400000000000000000060448201526064016105f7565b604051627eeac760e11b81526001600160a01b0384811660048301526024820186905283919083169062fdd58e9060440160206040518083038186803b15801561200a57600080fd5b505afa15801561201e573d6000803e3d6000fd5b505050506040513d601f19601f820116820180604052508101906120429190613305565b10156120905760405162461bcd60e51b815260206004820152601e60248201527f53656c6c6572206e6f7420656e6f75676820746f6b656e20737570706c79000060448201526064016105f7565b604051637921219560e11b81526001600160a01b0382169063f242432a906120c2908690339089908890600401613369565b600060405180830381600087803b1580156120dc57600080fd5b505af11580156120f0573d6000803e3d6000fd5b5050506001600160a01b03808716600090815260016020908152604080832089845282528083209388168352929052205461212c91508361291c565b6001600160a01b0380871660009081526001602090815260408083208984528252808320938816835292905220556121668585853461268a565b6001600160a01b0380861660009081526001602081815260408084208985528252808420948816845293905290829020015490517f15653aeaf314e9564b9ec17a9908d5b02cd3d7f3e44657084e30f11379e8afee916121cf91889188918891889133906134ca565b60405180910390a15050505050565b600454610100900460ff166121f95760045460ff16156121fd565b303b155b6122605760405162461bcd60e51b815260206004820152602e60248201527f496e697469616c697a61626c653a20636f6e747261637420697320616c72656160448201526d191e481a5b9a5d1a585b1a5e995960921b60648201526084016105f7565b600454610100900460ff16158015612282576004805461ffff19166101011790555b60058290556004805462010000600160b01b031916620100006001600160a01b0386160217905580156122bb576004805461ff00191690555b505050565b60008a8a8a8a8a8a8a6040516020016122df979695949392919061347b565b60405160208183030381529060405280519060200120905061233a84848080601f0160208091040260200160405190810160405280939291908181526020018383808284376000920191909152508592508d915061293b9050565b6123565760405162461bcd60e51b81526004016105f7906135a6565b61236082896137b4565b34146123a35760405162461bcd60e51b8152602060048201526012602482015271494e53554646494349454e545f46554e445360701b60448201526064016105f7565b604051631177f76560e21b81526000906001600160a01b038d16906345dfdd94906123da908d908f908d908d908d9060040161355e565b602060405180830381600087803b1580156123f457600080fd5b505af1158015612408573d6000803e3d6000fd5b505050506040513d601f19601f8201168201806040525081019061242c9190613305565b9050612438838c6137d3565b600160008e6001600160a01b03166001600160a01b03168152602001908152602001600020600083815260200190815260200160002060008c6001600160a01b03166001600160a01b031681526020019081526020016000206000018190555088600160008e6001600160a01b03166001600160a01b03168152602001908152602001600020600083815260200190815260200160002060008c6001600160a01b03166001600160a01b03168152602001908152602001600020600101819055506000600181111561250c5761250c613800565b6001600160a01b03808e166000908152602081815260408083208684528252808320938f168352929052205460ff16600181111561254c5761254c613800565b5050604051637921219560e11b81526001600160a01b038d169063f242432a90612580908d90339086908990600401613369565b600060405180830381600087803b15801561259a57600080fd5b505af11580156125ae573d6000803e3d6000fd5b5050505060006125cf6127106114ad600554346129ba90919063ffffffff16565b6004546040519192506201000090046001600160a01b0316906108fc8315029083906000818181858888f19350505050158015612610573d6000803e3d6000fd5b506001600160a01b038b166108fc612628348461291c565b6040518115909202916000818181858888f19350505050158015612650573d6000803e3d6000fd5b507f15653aeaf314e9564b9ec17a9908d5b02cd3d7f3e44657084e30f11379e8afee8d838d878e33604051610c59969594939291906134ca565b8061269485611d3e565b1561287157604051636a4731c560e11b81526004810185905285906000906001600160a01b0383169063d48e638a9060240160206040518083038186803b1580156126de57600080fd5b505afa1580156126f2573d6000803e3d6000fd5b505050506040513d601f19601f820116820180604052508101906127169190612fe7565b604051631af9cf4960e01b8152600481018890529091506000906001600160a01b03841690631af9cf499060240160206040518083038186803b15801561275c57600080fd5b505afa158015612770573d6000803e3d6000fd5b505050506040513d601f19601f820116820180604052508101906127949190613305565b90506000836001600160a01b03166334ce10c46040518163ffffffff1660e01b815260040160206040518083038186803b1580156127d157600080fd5b505afa1580156127e5573d6000803e3d6000fd5b505050506040513d601f19601f820116820180604052508101906128099190613305565b9050600061282561281b83606461370c565b6114ad89866129ba565b6040519091506001600160a01b0385169082156108fc029083906000818181858888f1935050505015801561285e573d6000803e3d6000fd5b50612869868261291c565b955050505050505b600061288e6127106114ad600554866129ba90919063ffffffff16565b6004546040519192506201000090046001600160a01b0316906108fc8315029083906000818181858888f193505050501580156128cf573d6000803e3d6000fd5b506128da828261291c565b6040519092506001600160a01b0385169083156108fc029084906000818181858888f19350505050158015612913573d6000803e3d6000fd5b50505050505050565b600061292882846137d3565b9392505050565b6000612928828461368f565b6000816001600160a01b03166129a8856129a2866040517f19457468657265756d205369676e6564204d6573736167653a0a3332000000006020820152603c8101829052600090605c01604051602081830303815290604052805190602001209050919050565b90612c10565b6001600160a01b031614949350505050565b600061292882846137b4565b600061292882846136a7565b604051627eeac760e11b815233600482015260248101849052849084908490839082906001600160a01b0383169062fdd58e9060440160206040518083038186803b158015612a2057600080fd5b505afa158015612a34573d6000803e3d6000fd5b505050506040513d601f19601f82011682018060405250810190612a589190613305565b1015612a765760405162461bcd60e51b81526004016105f790613612565b60405163e985e9c560e01b81523360048201819052306024830152899189919083906001600160a01b0382169063e985e9c59060440160206040518083038186803b158015612ac457600080fd5b505afa158015612ad8573d6000803e3d6000fd5b505050506040513d601f19601f82011682018060405250810190612afc91906132ca565b612b185760405162461bcd60e51b81526004016105f7906135d1565b6001600160a01b038c166000908152602081815260408083208e845282528083203384529091528120805460ff1916600183021790555060405180604001604052808b81526020018a815250600160008e6001600160a01b03166001600160a01b0316815260200190815260200160002060008d81526020019081526020016000206000336001600160a01b03166001600160a01b0316815260200190815260200160002060008201518160000155602082015181600101559050507f374ad07874f8cd2d9da1821e3d0811f3f8a722b476a2926046365876ee5cb7fb8c8c338d8d60008060405161111e979695949392919061342f565b6000806000612c1f8585612c34565b91509150612c2c81612ca4565b509392505050565b600080825160411415612c6b5760208301516040840151606085015160001a612c5f87828585612e62565b94509450505050612c9d565b825160401415612c955760208301516040840151612c8a868383612f4f565b935093505050612c9d565b506000905060025b9250929050565b6000816004811115612cb857612cb8613800565b1415612cc15750565b6001816004811115612cd557612cd5613800565b1415612d235760405162461bcd60e51b815260206004820152601860248201527f45434453413a20696e76616c6964207369676e6174757265000000000000000060448201526064016105f7565b6002816004811115612d3757612d37613800565b1415612d855760405162461bcd60e51b815260206004820152601f60248201527f45434453413a20696e76616c6964207369676e6174757265206c656e6774680060448201526064016105f7565b6003816004811115612d9957612d99613800565b1415612df25760405162461bcd60e51b815260206004820152602260248201527f45434453413a20696e76616c6964207369676e6174757265202773272076616c604482015261756560f01b60648201526084016105f7565b6004816004811115612e0657612e06613800565b1415612e5f5760405162461bcd60e51b815260206004820152602260248201527f45434453413a20696e76616c6964207369676e6174757265202776272076616c604482015261756560f01b60648201526084016105f7565b50565b6000807f7fffffffffffffffffffffffffffffff5d576e7357a4501ddfe92f46681b20a0831115612e995750600090506003612f46565b8460ff16601b14158015612eb157508460ff16601c14155b15612ec25750600090506004612f46565b6040805160008082526020820180845289905260ff881692820192909252606081018690526080810185905260019060a0016020604051602081039080840390855afa158015612f16573d6000803e3d6000fd5b5050604051601f1901519150506001600160a01b038116612f3f57600060019250925050612f46565b9150600090505b94509492505050565b6000806001600160ff1b03831681612f6c60ff86901c601b61368f565b9050612f7a87828885612e62565b935093505050935093915050565b60008083601f840112612f9a57600080fd5b50813567ffffffffffffffff811115612fb257600080fd5b602083019150836020828501011115612c9d57600080fd5b600060208284031215612fdc57600080fd5b813561292881613816565b600060208284031215612ff957600080fd5b815161292881613816565b6000806040838503121561301757600080fd5b823561302281613816565b946020939093013593505050565b60008060006060848603121561304557600080fd5b833561305081613816565b925060208401359150604084013561306781613816565b809150509250925092565b6000806000806080858703121561308857600080fd5b843561309381613816565b93506020850135925060408501356130aa81613816565b9396929550929360600135925050565b6000806000806000806000806000806101008b8d0312156130da57600080fd5b8a356130e581613816565b995060208b0135985060408b01356130fc81613816565b975060608b0135965060808b013567ffffffffffffffff8082111561312057600080fd5b61312c8e838f01612f88565b909850965060a08d0135955060c08d013591508082111561314c57600080fd5b506131598d828e01612f88565b9150809450508092505060e08b013590509295989b9194979a5092959850565b60008060008060008060008060008060006101208c8e03121561319b57600080fd5b6131a58c35613816565b8b359a5060208c013599506131bd60408d0135613816565b60408c0135985060608c0135975060808c0135965067ffffffffffffffff8060a08e013511156131ec57600080fd5b6131fc8e60a08f01358f01612f88565b909750955060c08d0135945060e08d013593506101008d013581101561322157600080fd5b506132338d6101008e01358e01612f88565b81935080925050509295989b509295989b9093969950565b6000806000806080858703121561326157600080fd5b843561326c81613816565b966020860135965060408601359560600135945092505050565b600080600080600060a0868803121561329e57600080fd5b85356132a981613816565b97602087013597506040870135966060810135965060800135945092505050565b6000602082840312156132dc57600080fd5b8151801515811461292857600080fd5b6000602082840312156132fe57600080fd5b5035919050565b60006020828403121561331757600080fd5b5051919050565b6002811061333c57634e487b7160e01b600052602160045260246000fd5b9052565b81835281816020850137506000828201602090810191909152601f909101601f19169091010190565b6001600160a01b0394851681529290931660208301526040820152606081019190915260a06080820181905260009082015260c00190565b6001600160a01b03978816815260208101969096529386166040860152919094166060840152608083019390935260a082019290925290151560c082015260e00190565b6001600160a01b03988916815260208101979097529487166040870152929095166060850152608084015260a083019390935291151560c082015260e08101919091526101000190565b6001600160a01b0388811682526020820188905286166040820152606081018590526080810184905260e0810161346960a083018561331e565b8260c083015298975050505050505050565b6001600160a01b03888116825260208201889052861660408201526060810185905260c0608082018190526000906134b69083018587613340565b90508260a083015298975050505050505050565b6001600160a01b039687168152602081019590955292851660408501526060840191909152608083015290911660a082015260c00190565b6001600160a01b038a81168252602082018a905288166040820152606081018790526080810186905261010060a082018190526000906135458382018789613340565b60c0840195909552505060e00152979650505050505050565b60018060a01b0386168152846020820152608060408201526000613586608083018587613340565b90508260608301529695505050505050565b60208101611dbf828461331e565b602080825260119082015270494e56414c49445f5349474e415455524560781b604082015260600190565b60208082526021908201527f4d61726b6574206e6f74206861766520617070726f76616c206f6620746f6b656040820152603760f91b606082015260800190565b60208082526017908201527f4e6f7420656e6f75676820746f6b656e20737570706c79000000000000000000604082015260600190565b60208082526026908201527f4f6e6c7920746865206d61726b6574207061796565206368616e67652074686560408201526520706179656560d01b606082015260800190565b600082198211156136a2576136a26137ea565b500190565b6000826136c457634e487b7160e01b600052601260045260246000fd5b500490565b600181815b808511156137045781600019048211156136ea576136ea6137ea565b808516156136f757918102915b93841c93908002906136ce565b509250929050565b6000612928838360008261372257506001611dbf565b8161372f57506000611dbf565b8160018114613745576002811461374f5761376b565b6001915050611dbf565b60ff841115613760576137606137ea565b50506001821b611dbf565b5060208310610133831016604e8410600b841016171561378e575081810a611dbf565b61379883836136c9565b80600019048211156137ac576137ac6137ea565b029392505050565b60008160001904831182151516156137ce576137ce6137ea565b500290565b6000828210156137e5576137e56137ea565b500390565b634e487b7160e01b600052601160045260246000fd5b634e487b7160e01b600052602160045260246000fd5b6001600160a01b0381168114612e5f57600080fdfea2646970667358221220614e4c73bf025e314779bf1c49554961d9890d20d5875b6d1af466bdd8359d2b64736f6c63430008070033",
  "linkReferences": {},
  "deployedLinkReferences": {}
}