{
  "_format": "hh-sol-artifact-1",
  "contractName": "ERC721Marketplace",
  "sourceName": "contracts/ERC721Marketplace.sol",
  "abi": [
    {
      "anonymous": false,
      "inputs": [
        {
          "indexed": false,
          "internalType": "address",
          "name": "_address",
          "type": "address"
        },
        {
          "indexed": false,
          "internalType": "uint256",
          "name": "_id",
          "type": "uint256"
        },
        {
          "indexed": false,
          "internalType": "address",
          "name": "_seller",
          "type": "address"
        },
        {
          "indexed": false,
          "internalType": "address",
          "name": "_maxBidder",
          "type": "address"
        },
        {
          "indexed": false,
          "internalType": "uint256",
          "name": "_maxBid",
          "type": "uint256"
        },
        {
          "indexed": false,
          "internalType": "bool",
          "name": "_success",
          "type": "bool"
        }
      ],
      "name": "AuctionEnded",
      "type": "event"
    },
    {
      "anonymous": false,
      "inputs": [
        {
          "indexed": false,
          "internalType": "address",
          "name": "_address",
          "type": "address"
        },
        {
          "indexed": false,
          "internalType": "uint256",
          "name": "_id",
          "type": "uint256"
        },
        {
          "indexed": false,
          "internalType": "address",
          "name": "_seller",
          "type": "address"
        },
        {
          "indexed": false,
          "internalType": "address",
          "name": "_bidder",
          "type": "address"
        },
        {
          "indexed": false,
          "internalType": "uint256",
          "name": "_value",
          "type": "uint256"
        }
      ],
      "name": "BidAdded",
      "type": "event"
    },
    {
      "anonymous": false,
      "inputs": [
        {
          "indexed": false,
          "internalType": "address",
          "name": "_address",
          "type": "address"
        },
        {
          "indexed": false,
          "internalType": "uint256",
          "name": "_id",
          "type": "uint256"
        },
        {
          "indexed": false,
          "internalType": "address",
          "name": "_seller",
          "type": "address"
        },
        {
          "indexed": false,
          "internalType": "uint256",
          "name": "_price",
          "type": "uint256"
        },
        {
          "indexed": false,
          "internalType": "enum Exchange721.SaleType",
          "name": "_type",
          "type": "uint8"
        },
        {
          "indexed": false,
          "internalType": "address",
          "name": "_buyer",
          "type": "address"
        }
      ],
      "name": "ItemBought",
      "type": "event"
    },
    {
      "anonymous": false,
      "inputs": [
        {
          "indexed": false,
          "internalType": "address",
          "name": "_address",
          "type": "address"
        },
        {
          "indexed": false,
          "internalType": "uint256",
          "name": "_id",
          "type": "uint256"
        },
        {
          "indexed": false,
          "internalType": "address",
          "name": "_seller",
          "type": "address"
        },
        {
          "indexed": false,
          "internalType": "uint256",
          "name": "_price",
          "type": "uint256"
        },
        {
          "indexed": false,
          "internalType": "enum Exchange721.SaleType",
          "name": "_type",
          "type": "uint8"
        },
        {
          "indexed": false,
          "internalType": "bool",
          "name": "_isSale",
          "type": "bool"
        },
        {
          "indexed": false,
          "internalType": "uint256",
          "name": "_endTime",
          "type": "uint256"
        }
      ],
      "name": "ItemUpdated",
      "type": "event"
    },
    {
      "anonymous": false,
      "inputs": [
        {
          "indexed": false,
          "internalType": "address",
          "name": "_bidder",
          "type": "address"
        },
        {
          "indexed": false,
          "internalType": "uint256",
          "name": "_value",
          "type": "uint256"
        }
      ],
      "name": "Withdrawn",
      "type": "event"
    },
    {
      "inputs": [],
      "name": "admin",
      "outputs": [
        {
          "internalType": "address",
          "name": "",
          "type": "address"
        }
      ],
      "stateMutability": "view",
      "type": "function"
    },
    {
      "inputs": [
        {
          "internalType": "address",
          "name": "",
          "type": "address"
        },
        {
          "internalType": "uint256",
          "name": "",
          "type": "uint256"
        }
      ],
      "name": "auctionItems",
      "outputs": [
        {
          "internalType": "uint256",
          "name": "maxBid",
          "type": "uint256"
        },
        {
          "internalType": "address",
          "name": "maxBidder",
          "type": "address"
        },
        {
          "internalType": "uint256",
          "name": "endTime",
          "type": "uint256"
        },
        {
          "internalType": "bool",
          "name": "ended",
          "type": "bool"
        }
      ],
      "stateMutability": "view",
      "type": "function"
    },
    {
      "inputs": [
        {
          "internalType": "address",
          "name": "_address",
          "type": "address"
        },
        {
          "internalType": "uint256",
          "name": "_id",
          "type": "uint256"
        }
      ],
      "name": "bid",
      "outputs": [],
      "stateMutability": "payable",
      "type": "function"
    },
    {
      "inputs": [
        {
          "internalType": "address",
          "name": "_address",
          "type": "address"
        },
        {
          "internalType": "uint256",
          "name": "_id",
          "type": "uint256"
        }
      ],
      "name": "buy",
      "outputs": [],
      "stateMutability": "payable",
      "type": "function"
    },
    {
      "inputs": [
        {
          "internalType": "address",
          "name": "_address",
          "type": "address"
        },
        {
          "internalType": "uint256",
          "name": "_id",
          "type": "uint256"
        }
      ],
      "name": "endAuction",
      "outputs": [],
      "stateMutability": "nonpayable",
      "type": "function"
    },
    {
      "inputs": [
        {
          "internalType": "address",
          "name": "_admin",
          "type": "address"
        },
        {
          "internalType": "address",
          "name": "_payee",
          "type": "address"
        },
        {
          "internalType": "uint256",
          "name": "_percent",
          "type": "uint256"
        }
      ],
      "name": "initialize",
      "outputs": [],
      "stateMutability": "nonpayable",
      "type": "function"
    },
    {
      "inputs": [
        {
          "internalType": "address",
          "name": "_collection",
          "type": "address"
        }
      ],
      "name": "isRoyalCollection",
      "outputs": [
        {
          "internalType": "bool",
          "name": "",
          "type": "bool"
        }
      ],
      "stateMutability": "view",
      "type": "function"
    },
    {
      "inputs": [
        {
          "internalType": "address",
          "name": "",
          "type": "address"
        },
        {
          "internalType": "uint256",
          "name": "",
          "type": "uint256"
        }
      ],
      "name": "itemIsForSale",
      "outputs": [
        {
          "internalType": "bool",
          "name": "",
          "type": "bool"
        }
      ],
      "stateMutability": "view",
      "type": "function"
    },
    {
      "inputs": [
        {
          "internalType": "address",
          "name": "",
          "type": "address"
        },
        {
          "internalType": "uint256",
          "name": "",
          "type": "uint256"
        }
      ],
      "name": "itemToPrice",
      "outputs": [
        {
          "internalType": "uint256",
          "name": "",
          "type": "uint256"
        }
      ],
      "stateMutability": "view",
      "type": "function"
    },
    {
      "inputs": [
        {
          "internalType": "address",
          "name": "",
          "type": "address"
        },
        {
          "internalType": "uint256",
          "name": "",
          "type": "uint256"
        }
      ],
      "name": "itemToSeller",
      "outputs": [
        {
          "internalType": "address",
          "name": "",
          "type": "address"
        }
      ],
      "stateMutability": "view",
      "type": "function"
    },
    {
      "inputs": [],
      "name": "marketPayee",
      "outputs": [
        {
          "internalType": "address",
          "name": "",
          "type": "address"
        }
      ],
      "stateMutability": "view",
      "type": "function"
    },
    {
      "inputs": [],
      "name": "marketPercent",
      "outputs": [
        {
          "internalType": "uint256",
          "name": "",
          "type": "uint256"
        }
      ],
      "stateMutability": "view",
      "type": "function"
    },
    {
      "inputs": [
        {
          "internalType": "address",
          "name": "",
          "type": "address"
        }
      ],
      "name": "pendingWithdraws",
      "outputs": [
        {
          "internalType": "uint256",
          "name": "",
          "type": "uint256"
        }
      ],
      "stateMutability": "view",
      "type": "function"
    },
    {
      "inputs": [
        {
          "internalType": "address",
          "name": "_address",
          "type": "address"
        },
        {
          "internalType": "uint256",
          "name": "_id",
          "type": "uint256"
        },
        {
          "internalType": "uint256",
          "name": "_minPrice",
          "type": "uint256"
        },
        {
          "internalType": "uint256",
          "name": "_endTime",
          "type": "uint256"
        }
      ],
      "name": "putOnAuction",
      "outputs": [],
      "stateMutability": "nonpayable",
      "type": "function"
    },
    {
      "inputs": [
        {
          "internalType": "address",
          "name": "_address",
          "type": "address"
        },
        {
          "internalType": "uint256",
          "name": "_id",
          "type": "uint256"
        },
        {
          "internalType": "uint256",
          "name": "_price",
          "type": "uint256"
        }
      ],
      "name": "putOnSale",
      "outputs": [],
      "stateMutability": "nonpayable",
      "type": "function"
    },
    {
      "inputs": [
        {
          "internalType": "address",
          "name": "",
          "type": "address"
        },
        {
          "internalType": "uint256",
          "name": "",
          "type": "uint256"
        }
      ],
      "name": "saleType",
      "outputs": [
        {
          "internalType": "enum Exchange721.SaleType",
          "name": "",
          "type": "uint8"
        }
      ],
      "stateMutability": "view",
      "type": "function"
    },
    {
      "inputs": [
        {
          "internalType": "address",
          "name": "_payee",
          "type": "address"
        }
      ],
      "name": "setMarketPayee",
      "outputs": [],
      "stateMutability": "nonpayable",
      "type": "function"
    },
    {
      "inputs": [
        {
          "internalType": "uint256",
          "name": "_percent",
          "type": "uint256"
        }
      ],
      "name": "setMarketPercent",
      "outputs": [],
      "stateMutability": "nonpayable",
      "type": "function"
    },
    {
      "inputs": [
        {
          "internalType": "address",
          "name": "_address",
          "type": "address"
        },
        {
          "internalType": "uint256",
          "name": "_id",
          "type": "uint256"
        }
      ],
      "name": "takeOffAuction",
      "outputs": [],
      "stateMutability": "nonpayable",
      "type": "function"
    },
    {
      "inputs": [
        {
          "internalType": "address",
          "name": "_address",
          "type": "address"
        },
        {
          "internalType": "uint256",
          "name": "_id",
          "type": "uint256"
        }
      ],
      "name": "takeOffSale",
      "outputs": [],
      "stateMutability": "nonpayable",
      "type": "function"
    },
    {
      "inputs": [],
      "name": "withdraw",
      "outputs": [],
      "stateMutability": "nonpayable",
      "type": "function"
    }
  ],
  "bytecode": "0x608060405234801561001057600080fd5b506122e2806100206000396000f3fe60806040526004361061012a5760003560e01c8063710eec46116100ab5780639d9abc881161006f5780639d9abc88146103d0578063cce7ec1314610408578063f55ae8411461041b578063f7a6ebce1461043b578063f851a44014610480578063fa14d481146104a057600080fd5b8063710eec46146102a157806388cedbc4146102d15780638e7d1e55146102f1578063947234951461032c57806397426acf1461034c57600080fd5b80633ac0374a116100f25780633ac0374a146102135780633ccfd60b14610233578063460a38cb14610248578063525aa6bf1461026857806359d667a51461028e57600080fd5b806302c56b1e1461012f5780630556f4f31461018d5780630cd9ad30146101b157806312e28aa0146101d35780631794bb3c146101f3575b600080fd5b34801561013b57600080fd5b5061017061014a366004611e8c565b60026020908152600092835260408084209091529082529020546001600160a01b031681565b6040516001600160a01b0390911681526020015b60405180910390f35b34801561019957600080fd5b506101a360085481565b604051908152602001610184565b3480156101bd57600080fd5b506101d16101cc366004611e11565b6104cd565b005b3480156101df57600080fd5b506101d16101ee366004611e8c565b61050e565b3480156101ff57600080fd5b506101d161020e366004611e4b565b6107e2565b34801561021f57600080fd5b506101d161022e366004611eb8565b6108e4565b34801561023f57600080fd5b506101d1610b72565b34801561025457600080fd5b506101d1610263366004611f4a565b610c04565b34801561027457600080fd5b50600654610170906201000090046001600160a01b031681565b6101d161029c366004611e8c565b610c20565b3480156102ad57600080fd5b506102c16102bc366004611e11565b610efc565b6040519015158152602001610184565b3480156102dd57600080fd5b506101d16102ec366004611e8c565b610f82565b3480156102fd57600080fd5b506102c161030c366004611e8c565b600360209081526000928352604080842090915290825290205460ff1681565b34801561033857600080fd5b506101d1610347366004611e8c565b611292565b34801561035857600080fd5b506103a6610367366004611e8c565b6004602090815260009283526040808420909152908252902080546001820154600283015460039093015491926001600160a01b039091169160ff1684565b604080519485526001600160a01b0390931660208501529183015215156060820152608001610184565b3480156103dc57600080fd5b506101a36103eb366004611e8c565b600160209081526000928352604080842090915290825290205481565b6101d1610416366004611e8c565b61145b565b34801561042757600080fd5b506101d1610436366004611eed565b6117dc565b34801561044757600080fd5b50610473610456366004611e8c565b600060208181529281526040808220909352908152205460ff1681565b6040516101849190612069565b34801561048c57600080fd5b50600754610170906001600160a01b031681565b3480156104ac57600080fd5b506101a36104bb366004611e11565b60056020526000908152604090205481565b6007546001600160a01b031633146104e457600080fd5b600680546001600160a01b03909216620100000262010000600160b01b0319909216919091179055565b6001600160a01b03828116600090815260026020908152604080832085845290915290205416331461057b5760405162461bcd60e51b81526020600482015260116024820152704e6f74206f776e6572206f66206974656d60781b60448201526064015b60405180910390fd5b6001600160a01b038216600090815260036020908152604080832084845290915290205460ff1615156001146105ea5760405162461bcd60e51b8152602060048201526014602482015273546f6b656e206973206e6f7420696e2073616c6560601b6044820152606401610572565b60016001600160a01b03831660009081526020818152604080832085845290915290205460ff1660018111156106225761062261227e565b1461063f5760405162461bcd60e51b815260040161057290612077565b6001600160a01b038216600090815260046020908152604080832084845290915290206003015460ff1615156001141561068b5760405162461bcd60e51b8152600401610572906120e6565b6001600160a01b03821660009081526004602090815260408083208484529091529020600201544211156106f35760405162461bcd60e51b815260206004820152600f60248201526e105d58dd1a5bdb88195e1c1a5c9959608a1b6044820152606401610572565b6001600160a01b038083166000908152600460209081526040808320858452825280832080546001909101549094168352600590915290205461073591611b42565b6001600160a01b0383811660008181526004602090815260408083208784528083528184206001808201549097168552600584528285209790975593835260038083528184208885528352818420805460ff199081169091559490925294018054909216909217905590517fc4dc7cf18bccd52b7c4888df565b86150de909247cec20144af67ead5ee68a6f916107d6918591859133919081908190611f9e565b60405180910390a15050565b600654610100900460ff166107fd5760065460ff1615610801565b303b155b6108645760405162461bcd60e51b815260206004820152602e60248201527f496e697469616c697a61626c653a20636f6e747261637420697320616c72656160448201526d191e481a5b9a5d1a585b1a5e995960921b6064820152608401610572565b600654610100900460ff16158015610886576006805461ffff19166101011790555b600780546001600160a01b0319166001600160a01b03868116919091179091556006805462010000600160b01b0319166201000092861692909202919091179055600882905580156108de576006805461ff00191690555b50505050565b6040516331a9108f60e11b815260048101839052839083903390839082906001600160a01b03831690636352211e9060240160206040518083038186803b15801561092e57600080fd5b505afa158015610942573d6000803e3d6000fd5b505050506040513d601f19601f820116820180604052508101906109669190611e2e565b6001600160a01b0316146109b65760405162461bcd60e51b81526020600482015260176024820152764e6f7420656e6f75676820746f6b656e20737570706c7960481b6044820152606401610572565b60405163e985e9c560e01b81523360048201819052306024830152889182906001600160a01b0382169063e985e9c59060440160206040518083038186803b158015610a0157600080fd5b505afa158015610a15573d6000803e3d6000fd5b505050506040513d601f19601f82011682018060405250810190610a399190611f28565b610a555760405162461bcd60e51b8152600401610572906120a5565b60008811610aa55760405162461bcd60e51b815260206004820152601c60248201527f5072696365206d7573742062652067726561746572207468616e2030000000006044820152606401610572565b6001600160a01b038a166000818152602081815260408083208d84528252808320805460ff1990811690915584845260018084528285208f865284528285208e9055858552600284528285208f8652845282852080546001600160a01b03191633908117909155958552600384528285208f8652909352818420805490911683179055517f22b5b72d434bb376e1e3a48163861814589cc97f446d4e1a83f6005d34c9937293610b5e938f938f938f9291908290612021565b60405180910390a150505050505050505050565b3360008181526005602052604080822054905181156108fc0292818181858888f19350505050158015610ba9573d6000803e3d6000fd5b5033600081815260056020908152604091829020548251938452908301527f7084f5476618d8e60b11ef0d7d3f06914655adb8793e28ff7f018d4c76d505d5910160405180910390a133600090815260056020526040812055565b6007546001600160a01b03163314610c1b57600080fd5b600855565b6001600160a01b038216600090815260036020908152604080832084845290915290205460ff161515600114610c8f5760405162461bcd60e51b8152602060048201526014602482015273546f6b656e206973206e6f7420696e2073616c6560601b6044820152606401610572565b60016001600160a01b03831660009081526020818152604080832085845290915290205460ff166001811115610cc757610cc761227e565b14610ce45760405162461bcd60e51b815260040161057290612077565b6001600160a01b038216600090815260046020908152604080832084845290915290206003015460ff16151560011415610d305760405162461bcd60e51b8152600401610572906120e6565b6001600160a01b0382166000908152600460209081526040808320848452909152902060020154421115610d985760405162461bcd60e51b815260206004820152600f60248201526e105d58dd1a5bdb88195e1c1a5c9959608a1b6044820152606401610572565b6001600160a01b03821660009081526004602090815260408083208484529091529020543411610e0a5760405162461bcd60e51b815260206004820152601d60248201527f546865726520616c7265616479206973206120686967686572206269640000006044820152606401610572565b6001600160a01b0380831660009081526004602090815260408083208584528252808320805460019091015490941683526005909152902054610e4c91611b42565b6001600160a01b0383811660008181526004602090815260408083208784528252808320600181018054871685526005845282852097909755349081905586546001600160a01b0319163390811790975584845260028352818420888552835292819020548151948552918401879052931692820192909252606081019290925260808201527f7aaaf9649d5f33a41e6d052db876b6253e362d6e6ff1317c04a67695b85845719060a0016107d6565b6040516301ffc9a760e01b815262079beb60eb1b60048201526000906001600160a01b038316906301ffc9a79060240160206040518083038186803b158015610f4457600080fd5b505afa158015610f58573d6000803e3d6000fd5b505050506040513d601f19601f82011682018060405250810190610f7c9190611f28565b92915050565b8160016001600160a01b03841660009081526020818152604080832086845290915290205460ff166001811115610fbb57610fbb61227e565b14610fd85760405162461bcd60e51b815260040161057290612077565b6001600160a01b038316600090815260046020908152604080832085845290915290206003015460ff161515600114156110245760405162461bcd60e51b8152600401610572906120e6565b6001600160a01b038381166000908152600260209081526040808320868452909152908190205490516331a9108f60e11b81526004810185905290821691831690636352211e9060240160206040518083038186803b15801561108657600080fd5b505afa15801561109a573d6000803e3d6000fd5b505050506040513d601f19601f820116820180604052508101906110be9190611e2e565b6001600160a01b0316146111145760405162461bcd60e51b815260206004820152601960248201527f53656c6c6572206e6f74206f776e207468697320746f6b656e000000000000006044820152606401610572565b6001600160a01b038381166000818152600260209081526040808320878452825280832054938352600480835281842088855290925291829020600101549151632142170760e11b8152928416908301528216602482015260448101849052908216906342842e0e90606401600060405180830381600087803b15801561119a57600080fd5b505af11580156111ae573d6000803e3d6000fd5b5050506001600160a01b038085166000818152600260209081526040808320888452825280832054938352600482528083208884529091529020546111f99350869286921690611b55565b6001600160a01b03838116600081815260046020908152604080832087845280835281842060038101805460ff1916600190811790915595855260028452828520898652845293829020548585015491909352925490517fc4dc7cf18bccd52b7c4888df565b86150de909247cec20144af67ead5ee68a6f95611285958a958a95831694921692611f9e565b60405180910390a1505050565b6001600160a01b0382811660009081526002602090815260408083208584529091529020541633146112fa5760405162461bcd60e51b81526020600482015260116024820152704e6f74206f776e6572206f66206974656d60781b6044820152606401610572565b6001600160a01b038216600090815260036020908152604080832084845290915290205460ff1615156001146113685760405162461bcd60e51b81526020600482015260136024820152724974656d206973206e6f74206f6e2073616c6560681b6044820152606401610572565b6001600160a01b03821660009081526020818152604080832084845290915281205460ff16600181111561139e5761139e61227e565b146113e45760405162461bcd60e51b815260206004820152601660248201527514d85b19481d1e5c19481a5cc81b9bdd08199a5e195960521b6044820152606401610572565b6001600160a01b03821660008181526003602090815260408083208584528252808320805460ff191690559282526001815282822084835290528181205491517f22b5b72d434bb376e1e3a48163861814589cc97f446d4e1a83f6005d34c99372926107d692869286923392909181908190612021565b6001600160a01b038216600090815260036020908152604080832084845290915290205460ff1615156001146114c95760405162461bcd60e51b81526020600482015260136024820152724974656d206973206e6f74206f6e2073616c6560681b6044820152606401610572565b8160006001600160a01b03841660009081526020818152604080832086845290915290205460ff1660018111156115025761150261227e565b146115485760405162461bcd60e51b815260206004820152601660248201527514d85b19481d1e5c19481a5cc81b9bdd08199a5e195960521b6044820152606401610572565b6001600160a01b038316600090815260016020908152604080832085845290915290205434146115ba5760405162461bcd60e51b815260206004820152601760248201527f4e6f7420656e6f7567682066756e6420746f2073656e640000000000000000006044820152606401610572565b6001600160a01b038381166000908152600260209081526040808320868452909152908190205490516331a9108f60e11b81526004810185905290821691831690636352211e9060240160206040518083038186803b15801561161c57600080fd5b505afa158015611630573d6000803e3d6000fd5b505050506040513d601f19601f820116820180604052508101906116549190611e2e565b6001600160a01b0316146116aa5760405162461bcd60e51b815260206004820152601960248201527f53656c6c6572206e6f74206f776e6572206f6620746f6b656e000000000000006044820152606401610572565b6001600160a01b03838116600090815260026020908152604080832086845290915290819020549051632142170760e11b8152908216600482015233602482015260448101849052908216906342842e0e90606401600060405180830381600087803b15801561171957600080fd5b505af115801561172d573d6000803e3d6000fd5b5050506001600160a01b0380851660008181526003602090815260408083208884528252808320805460ff19169055928252600281528282208783529052205461177d9250859185911634611b55565b6001600160a01b0380841660009081526002602090815260408083208684529091528082205490517f529a3e4872ec17f8f452a91b6290e7a11a2a5b1dc6e620bef1905ad3345954489361128593889388939216913491903390611fd8565b6040516331a9108f60e11b815260048101849052849084903390839082906001600160a01b03831690636352211e9060240160206040518083038186803b15801561182657600080fd5b505afa15801561183a573d6000803e3d6000fd5b505050506040513d601f19601f8201168201806040525081019061185e9190611e2e565b6001600160a01b0316146118ae5760405162461bcd60e51b81526020600482015260176024820152764e6f7420656e6f75676820746f6b656e20737570706c7960481b6044820152606401610572565b60405163e985e9c560e01b81523360048201819052306024830152899182906001600160a01b0382169063e985e9c59060440160206040518083038186803b1580156118f957600080fd5b505afa15801561190d573d6000803e3d6000fd5b505050506040513d601f19601f820116820180604052508101906119319190611f28565b61194d5760405162461bcd60e51b8152600401610572906120a5565b6001600160a01b038b166000908152602081815260408083208d8452909152902080546001919060ff19168280021790555033600260008d6001600160a01b03166001600160a01b0316815260200190815260200160002060008c815260200190815260200160002060006101000a8154816001600160a01b0302191690836001600160a01b031602179055506001600360008d6001600160a01b03166001600160a01b0316815260200190815260200160002060008c815260200190815260200160002060006101000a81548160ff02191690831515021790555060405180608001604052808a815260200160006001600160a01b0316815260200189815260200160001515815250600460008d6001600160a01b03166001600160a01b0316815260200190815260200160002060008c81526020019081526020016000206000820151816000015560208201518160010160006101000a8154816001600160a01b0302191690836001600160a01b031602179055506040820151816002015560608201518160030160006101000a81548160ff0219169083151502179055509050507f22b5b72d434bb376e1e3a48163861814589cc97f446d4e1a83f6005d34c993728b8b338c6001808e604051611b2d9796959493929190612021565b60405180910390a15050505050505050505050565b6000611b4e828461210d565b9392505050565b80611b5f85610efc565b15611d4257604051636a4731c560e11b81526004810185905285906000906001600160a01b0383169063d48e638a9060240160206040518083038186803b158015611ba957600080fd5b505afa158015611bbd573d6000803e3d6000fd5b505050506040513d601f19601f82011682018060405250810190611be19190611e2e565b604051631af9cf4960e01b8152600481018890529091506000906001600160a01b03841690631af9cf499060240160206040518083038186803b158015611c2757600080fd5b505afa158015611c3b573d6000803e3d6000fd5b505050506040513d601f19601f82011682018060405250810190611c5f9190611f63565b90506000836001600160a01b03166334ce10c46040518163ffffffff1660e01b815260040160206040518083038186803b158015611c9c57600080fd5b505afa158015611cb0573d6000803e3d6000fd5b505050506040513d601f19601f82011682018060405250810190611cd49190611f63565b90506000611cf6611ce683606461218a565b611cf08986611ded565b90611df9565b6040519091506001600160a01b0385169082156108fc029083906000818181858888f19350505050158015611d2f573d6000803e3d6000fd5b50611d3a8682611e05565b955050505050505b6000611d5f612710611cf060085486611ded90919063ffffffff16565b6006546040519192506201000090046001600160a01b0316906108fc8315029083906000818181858888f19350505050158015611da0573d6000803e3d6000fd5b50611dab8282611e05565b6040519092506001600160a01b0385169083156108fc029084906000818181858888f19350505050158015611de4573d6000803e3d6000fd5b50505050505050565b6000611b4e8284612232565b6000611b4e8284612125565b6000611b4e8284612251565b600060208284031215611e2357600080fd5b8135611b4e81612294565b600060208284031215611e4057600080fd5b8151611b4e81612294565b600080600060608486031215611e6057600080fd5b8335611e6b81612294565b92506020840135611e7b81612294565b929592945050506040919091013590565b60008060408385031215611e9f57600080fd5b8235611eaa81612294565b946020939093013593505050565b600080600060608486031215611ecd57600080fd5b8335611ed881612294565b95602085013595506040909401359392505050565b60008060008060808587031215611f0357600080fd5b8435611f0e81612294565b966020860135965060408601359560600135945092505050565b600060208284031215611f3a57600080fd5b81518015158114611b4e57600080fd5b600060208284031215611f5c57600080fd5b5035919050565b600060208284031215611f7557600080fd5b5051919050565b60028110611f9a57634e487b7160e01b600052602160045260246000fd5b9052565b6001600160a01b0396871681526020810195909552928516604085015293166060830152608082019290925290151560a082015260c00190565b6001600160a01b0387811682526020820187905285811660408301526060820185905260c082019061200d6080840186611f7c565b80841660a084015250979650505050505050565b6001600160a01b03888116825260208201889052861660408201526060810185905260e081016120546080830186611f7c565b92151560a082015260c0015295945050505050565b60208101610f7c8284611f7c565b6020808252601490820152732a37b5b2b7103737ba1034b71030bab1ba34b7b760611b604082015260600190565b60208082526021908201527f4d61726b6574206e6f74206861766520617070726f76616c206f6620746f6b656040820152603760f91b606082015260800190565b6020808252600d908201526c105d58dd1a5bdb88195b991959609a1b604082015260600190565b6000821982111561212057612120612268565b500190565b60008261214257634e487b7160e01b600052601260045260246000fd5b500490565b600181815b8085111561218257816000190482111561216857612168612268565b8085161561217557918102915b93841c939080029061214c565b509250929050565b6000611b4e83836000826121a057506001610f7c565b816121ad57506000610f7c565b81600181146121c357600281146121cd576121e9565b6001915050610f7c565b60ff8411156121de576121de612268565b50506001821b610f7c565b5060208310610133831016604e8410600b841016171561220c575081810a610f7c565b6122168383612147565b806000190482111561222a5761222a612268565b029392505050565b600081600019048311821515161561224c5761224c612268565b500290565b60008282101561226357612263612268565b500390565b634e487b7160e01b600052601160045260246000fd5b634e487b7160e01b600052602160045260246000fd5b6001600160a01b03811681146122a957600080fd5b5056fea26469706673582212205b84fd73bb6333e5dc5f667e4d65bb0031d931e4424b14c99d091116f5b202ed64736f6c63430008070033",
  "linkReferences": {},
  "deployedLinkReferences": {}
}