{
    "_format": "hh-sol-artifact-1",
    "contractName": "HaveFeeCollection",
    "sourceName": "contracts/HaveFeeCollection.sol",
    "abi": [
        {
            "inputs": [
                {
                    "internalType": "string",
                    "name": "_name",
                    "type": "string"
                },
                {
                    "internalType": "string",
                    "name": "_symbol",
                    "type": "string"
                },
                {
                    "internalType": "string",
                    "name": "_uri",
                    "type": "string"
                },
                {
                    "internalType": "uint256",
                    "name": "_publicFee",
                    "type": "uint256"
                },
                {
                    "internalType": "uint256",
                    "name": "_earlyFee",
                    "type": "uint256"
                },
                {
                    "internalType": "uint32",
                    "name": "_earlyLimit",
                    "type": "uint32"
                },
                {
                    "internalType": "address",
                    "name": "_payee",
                    "type": "address"
                }
            ],
            "stateMutability": "nonpayable",
            "type": "constructor"
        },
        {
            "anonymous": false,
            "inputs": [
                {
                    "indexed": true,
                    "internalType": "address",
                    "name": "account",
                    "type": "address"
                },
                {
                    "indexed": true,
                    "internalType": "address",
                    "name": "operator",
                    "type": "address"
                },
                {
                    "indexed": false,
                    "internalType": "bool",
                    "name": "approved",
                    "type": "bool"
                }
            ],
            "name": "ApprovalForAll",
            "type": "event"
        },
        {
            "anonymous": false,
            "inputs": [
                {
                    "indexed": true,
                    "internalType": "address",
                    "name": "previousOwner",
                    "type": "address"
                },
                {
                    "indexed": true,
                    "internalType": "address",
                    "name": "newOwner",
                    "type": "address"
                }
            ],
            "name": "OwnershipTransferred",
            "type": "event"
        },
        {
            "anonymous": false,
            "inputs": [
                {
                    "indexed": true,
                    "internalType": "address",
                    "name": "operator",
                    "type": "address"
                },
                {
                    "indexed": true,
                    "internalType": "address",
                    "name": "from",
                    "type": "address"
                },
                {
                    "indexed": true,
                    "internalType": "address",
                    "name": "to",
                    "type": "address"
                },
                {
                    "indexed": false,
                    "internalType": "uint256[]",
                    "name": "ids",
                    "type": "uint256[]"
                },
                {
                    "indexed": false,
                    "internalType": "uint256[]",
                    "name": "values",
                    "type": "uint256[]"
                }
            ],
            "name": "TransferBatch",
            "type": "event"
        },
        {
            "anonymous": false,
            "inputs": [
                {
                    "indexed": true,
                    "internalType": "address",
                    "name": "operator",
                    "type": "address"
                },
                {
                    "indexed": true,
                    "internalType": "address",
                    "name": "from",
                    "type": "address"
                },
                {
                    "indexed": true,
                    "internalType": "address",
                    "name": "to",
                    "type": "address"
                },
                {
                    "indexed": false,
                    "internalType": "uint256",
                    "name": "id",
                    "type": "uint256"
                },
                {
                    "indexed": false,
                    "internalType": "uint256",
                    "name": "value",
                    "type": "uint256"
                }
            ],
            "name": "TransferSingle",
            "type": "event"
        },
        {
            "anonymous": false,
            "inputs": [
                {
                    "indexed": false,
                    "internalType": "string",
                    "name": "value",
                    "type": "string"
                },
                {
                    "indexed": true,
                    "internalType": "uint256",
                    "name": "id",
                    "type": "uint256"
                }
            ],
            "name": "URI",
            "type": "event"
        },
        {
            "inputs": [
                {
                    "internalType": "address",
                    "name": "account",
                    "type": "address"
                },
                {
                    "internalType": "uint256",
                    "name": "id",
                    "type": "uint256"
                }
            ],
            "name": "balanceOf",
            "outputs": [
                {
                    "internalType": "uint256",
                    "name": "",
                    "type": "uint256"
                }
            ],
            "stateMutability": "view",
            "type": "function"
        },
        {
            "inputs": [
                {
                    "internalType": "address[]",
                    "name": "accounts",
                    "type": "address[]"
                },
                {
                    "internalType": "uint256[]",
                    "name": "ids",
                    "type": "uint256[]"
                }
            ],
            "name": "balanceOfBatch",
            "outputs": [
                {
                    "internalType": "uint256[]",
                    "name": "",
                    "type": "uint256[]"
                }
            ],
            "stateMutability": "view",
            "type": "function"
        },
        {
            "inputs": [
                {
                    "internalType": "address",
                    "name": "_initialOwner",
                    "type": "address"
                },
                {
                    "internalType": "string[]",
                    "name": "_uris",
                    "type": "string[]"
                }
            ],
            "name": "bulkCreate",
            "outputs": [],
            "stateMutability": "payable",
            "type": "function"
        },
        {
            "inputs": [],
            "name": "contractURI",
            "outputs": [
                {
                    "internalType": "string",
                    "name": "",
                    "type": "string"
                }
            ],
            "stateMutability": "view",
            "type": "function"
        },
        {
            "inputs": [
                {
                    "internalType": "address",
                    "name": "_initialOwner",
                    "type": "address"
                },
                {
                    "internalType": "uint256",
                    "name": "_initialSupply",
                    "type": "uint256"
                },
                {
                    "internalType": "string",
                    "name": "_uri",
                    "type": "string"
                }
            ],
            "name": "create",
            "outputs": [
                {
                    "internalType": "uint256",
                    "name": "",
                    "type": "uint256"
                }
            ],
            "stateMutability": "payable",
            "type": "function"
        },
        {
            "inputs": [
                {
                    "internalType": "uint256",
                    "name": "",
                    "type": "uint256"
                }
            ],
            "name": "creators",
            "outputs": [
                {
                    "internalType": "address",
                    "name": "",
                    "type": "address"
                }
            ],
            "stateMutability": "view",
            "type": "function"
        },
        {
            "inputs": [],
            "name": "earlyFee",
            "outputs": [
                {
                    "internalType": "uint256",
                    "name": "",
                    "type": "uint256"
                }
            ],
            "stateMutability": "view",
            "type": "function"
        },
        {
            "inputs": [],
            "name": "earlyLimit",
            "outputs": [
                {
                    "internalType": "uint256",
                    "name": "",
                    "type": "uint256"
                }
            ],
            "stateMutability": "view",
            "type": "function"
        },
        {
            "inputs": [
                {
                    "internalType": "uint256",
                    "name": "_id",
                    "type": "uint256"
                }
            ],
            "name": "getCreator",
            "outputs": [
                {
                    "internalType": "address",
                    "name": "",
                    "type": "address"
                }
            ],
            "stateMutability": "view",
            "type": "function"
        },
        {
            "inputs": [],
            "name": "getDecimal",
            "outputs": [
                {
                    "internalType": "uint256",
                    "name": "",
                    "type": "uint256"
                }
            ],
            "stateMutability": "view",
            "type": "function"
        },
        {
            "inputs": [
                {
                    "internalType": "address",
                    "name": "minter",
                    "type": "address"
                }
            ],
            "name": "getFee",
            "outputs": [
                {
                    "internalType": "uint256",
                    "name": "",
                    "type": "uint256"
                }
            ],
            "stateMutability": "view",
            "type": "function"
        },
        {
            "inputs": [
                {
                    "internalType": "uint256",
                    "name": "_id",
                    "type": "uint256"
                }
            ],
            "name": "getRoyalty",
            "outputs": [
                {
                    "internalType": "uint256",
                    "name": "",
                    "type": "uint256"
                }
            ],
            "stateMutability": "view",
            "type": "function"
        },
        {
            "inputs": [
                {
                    "internalType": "address",
                    "name": "account",
                    "type": "address"
                },
                {
                    "internalType": "address",
                    "name": "operator",
                    "type": "address"
                }
            ],
            "name": "isApprovedForAll",
            "outputs": [
                {
                    "internalType": "bool",
                    "name": "",
                    "type": "bool"
                }
            ],
            "stateMutability": "view",
            "type": "function"
        },
        {
            "inputs": [],
            "name": "name",
            "outputs": [
                {
                    "internalType": "string",
                    "name": "",
                    "type": "string"
                }
            ],
            "stateMutability": "view",
            "type": "function"
        },
        {
            "inputs": [],
            "name": "owner",
            "outputs": [
                {
                    "internalType": "address",
                    "name": "",
                    "type": "address"
                }
            ],
            "stateMutability": "view",
            "type": "function"
        },
        {
            "inputs": [],
            "name": "payee",
            "outputs": [
                {
                    "internalType": "address",
                    "name": "",
                    "type": "address"
                }
            ],
            "stateMutability": "view",
            "type": "function"
        },
        {
            "inputs": [],
            "name": "publicFee",
            "outputs": [
                {
                    "internalType": "uint256",
                    "name": "",
                    "type": "uint256"
                }
            ],
            "stateMutability": "view",
            "type": "function"
        },
        {
            "inputs": [],
            "name": "renounceOwnership",
            "outputs": [],
            "stateMutability": "nonpayable",
            "type": "function"
        },
        {
            "inputs": [
                {
                    "internalType": "uint256",
                    "name": "",
                    "type": "uint256"
                }
            ],
            "name": "royalties",
            "outputs": [
                {
                    "internalType": "uint256",
                    "name": "",
                    "type": "uint256"
                }
            ],
            "stateMutability": "view",
            "type": "function"
        },
        {
            "inputs": [
                {
                    "internalType": "address",
                    "name": "from",
                    "type": "address"
                },
                {
                    "internalType": "address",
                    "name": "to",
                    "type": "address"
                },
                {
                    "internalType": "uint256[]",
                    "name": "ids",
                    "type": "uint256[]"
                },
                {
                    "internalType": "uint256[]",
                    "name": "amounts",
                    "type": "uint256[]"
                },
                {
                    "internalType": "bytes",
                    "name": "data",
                    "type": "bytes"
                }
            ],
            "name": "safeBatchTransferFrom",
            "outputs": [],
            "stateMutability": "nonpayable",
            "type": "function"
        },
        {
            "inputs": [
                {
                    "internalType": "address",
                    "name": "from",
                    "type": "address"
                },
                {
                    "internalType": "address",
                    "name": "to",
                    "type": "address"
                },
                {
                    "internalType": "uint256",
                    "name": "id",
                    "type": "uint256"
                },
                {
                    "internalType": "uint256",
                    "name": "amount",
                    "type": "uint256"
                },
                {
                    "internalType": "bytes",
                    "name": "data",
                    "type": "bytes"
                }
            ],
            "name": "safeTransferFrom",
            "outputs": [],
            "stateMutability": "nonpayable",
            "type": "function"
        },
        {
            "inputs": [
                {
                    "internalType": "address",
                    "name": "operator",
                    "type": "address"
                },
                {
                    "internalType": "bool",
                    "name": "approved",
                    "type": "bool"
                }
            ],
            "name": "setApprovalForAll",
            "outputs": [],
            "stateMutability": "nonpayable",
            "type": "function"
        },
        {
            "inputs": [
                {
                    "internalType": "uint256",
                    "name": "_id",
                    "type": "uint256"
                },
                {
                    "internalType": "uint256",
                    "name": "royalty",
                    "type": "uint256"
                }
            ],
            "name": "setRoyalty",
            "outputs": [],
            "stateMutability": "nonpayable",
            "type": "function"
        },
        {
            "inputs": [
                {
                    "internalType": "bytes4",
                    "name": "interfaceId",
                    "type": "bytes4"
                }
            ],
            "name": "supportsInterface",
            "outputs": [
                {
                    "internalType": "bool",
                    "name": "",
                    "type": "bool"
                }
            ],
            "stateMutability": "view",
            "type": "function"
        },
        {
            "inputs": [],
            "name": "symbol",
            "outputs": [
                {
                    "internalType": "string",
                    "name": "",
                    "type": "string"
                }
            ],
            "stateMutability": "view",
            "type": "function"
        },
        {
            "inputs": [
                {
                    "internalType": "uint256",
                    "name": "",
                    "type": "uint256"
                }
            ],
            "name": "tokenSupply",
            "outputs": [
                {
                    "internalType": "uint256",
                    "name": "",
                    "type": "uint256"
                }
            ],
            "stateMutability": "view",
            "type": "function"
        },
        {
            "inputs": [],
            "name": "totalMinted",
            "outputs": [
                {
                    "internalType": "uint256",
                    "name": "",
                    "type": "uint256"
                }
            ],
            "stateMutability": "view",
            "type": "function"
        },
        {
            "inputs": [
                {
                    "internalType": "address",
                    "name": "newOwner",
                    "type": "address"
                }
            ],
            "name": "transferOwnership",
            "outputs": [],
            "stateMutability": "nonpayable",
            "type": "function"
        },
        {
            "inputs": [
                {
                    "internalType": "uint256",
                    "name": "_id",
                    "type": "uint256"
                }
            ],
            "name": "uri",
            "outputs": [
                {
                    "internalType": "string",
                    "name": "",
                    "type": "string"
                }
            ],
            "stateMutability": "view",
            "type": "function"
        },
        {
            "inputs": [
                {
                    "internalType": "uint256",
                    "name": "",
                    "type": "uint256"
                }
            ],
            "name": "uris",
            "outputs": [
                {
                    "internalType": "string",
                    "name": "",
                    "type": "string"
                }
            ],
            "stateMutability": "view",
            "type": "function"
        }
    ],
    "bytecode": "0x60806040526002600c553480156200001657600080fd5b50604051620044fa380380620044fa83398181016040528101906200003c9190620003d1565b86868682826040518060200160405280600081525062000062816200016a60201b60201c565b5062000083620000776200018660201b60201c565b6200018e60201b60201c565b6200009a60046200025460201b620016341760201c565b8160089080519060200190620000b29291906200026a565b508060099080519060200190620000cb9291906200026a565b50505080600a9080519060200190620000e69291906200026a565b5050505062000101600d6200025460201b620016341760201c565b83600e8190555082600f819055508163ffffffff1660108190555080601160006101000a81548173ffffffffffffffffffffffffffffffffffffffff021916908373ffffffffffffffffffffffffffffffffffffffff16021790555050505050505050620006d5565b8060029080519060200190620001829291906200026a565b5050565b600033905090565b6000600360009054906101000a900473ffffffffffffffffffffffffffffffffffffffff16905081600360006101000a81548173ffffffffffffffffffffffffffffffffffffffff021916908373ffffffffffffffffffffffffffffffffffffffff1602179055508173ffffffffffffffffffffffffffffffffffffffff168173ffffffffffffffffffffffffffffffffffffffff167f8be0079c531659141344cd1fd0a4f28419497f9722a3daafe3b4186f6b6457e060405160405180910390a35050565b6001816000016000828254019250508190555050565b8280546200027890620005ac565b90600052602060002090601f0160209004810192826200029c5760008555620002e8565b82601f10620002b757805160ff1916838001178555620002e8565b82800160010185558215620002e8579182015b82811115620002e7578251825591602001919060010190620002ca565b5b509050620002f79190620002fb565b5090565b5b8082111562000316576000816000905550600101620002fc565b5090565b6000620003316200032b84620004f2565b620004c9565b9050828152602081018484840111156200034a57600080fd5b6200035784828562000576565b509392505050565b600081519050620003708162000687565b92915050565b600082601f8301126200038857600080fd5b81516200039a8482602086016200031a565b91505092915050565b600081519050620003b481620006a1565b92915050565b600081519050620003cb81620006bb565b92915050565b600080600080600080600060e0888a031215620003ed57600080fd5b600088015167ffffffffffffffff8111156200040857600080fd5b620004168a828b0162000376565b975050602088015167ffffffffffffffff8111156200043457600080fd5b620004428a828b0162000376565b965050604088015167ffffffffffffffff8111156200046057600080fd5b6200046e8a828b0162000376565b9550506060620004818a828b01620003a3565b9450506080620004948a828b01620003a3565b93505060a0620004a78a828b01620003ba565b92505060c0620004ba8a828b016200035f565b91505092959891949750929550565b6000620004d5620004e8565b9050620004e38282620005e2565b919050565b6000604051905090565b600067ffffffffffffffff82111562000510576200050f62000647565b5b6200051b8262000676565b9050602081019050919050565b600062000535826200053c565b9050919050565b600073ffffffffffffffffffffffffffffffffffffffff82169050919050565b6000819050919050565b600063ffffffff82169050919050565b60005b838110156200059657808201518184015260208101905062000579565b83811115620005a6576000848401525b50505050565b60006002820490506001821680620005c557607f821691505b60208210811415620005dc57620005db62000618565b5b50919050565b620005ed8262000676565b810181811067ffffffffffffffff821117156200060f576200060e62000647565b5b80604052505050565b7f4e487b7100000000000000000000000000000000000000000000000000000000600052602260045260246000fd5b7f4e487b7100000000000000000000000000000000000000000000000000000000600052604160045260246000fd5b6000601f19601f8301169050919050565b620006928162000528565b81146200069e57600080fd5b50565b620006ac816200055c565b8114620006b857600080fd5b50565b620006c68162000566565b8114620006d257600080fd5b50565b613e1580620006e56000396000f3fe6080604052600436106101cc5760003560e01c8063715018a6116100f7578063ae90b21311610095578063e8a3d48511610064578063e8a3d485146106d1578063e985e9c5146106fc578063f242432a14610739578063f2fde38b14610762576101cc565b8063ae90b213146105ef578063b88c91481461061a578063cd53d08e14610657578063d48e638a14610694576101cc565b8063933a6f0d116100d1578063933a6f0d1461054757806395d89b4114610570578063a22cb4651461059b578063a2309ff8146105c4576101cc565b8063715018a6146104c85780637f77f574146104df5780638da5cb5b1461051c576101cc565b80631d40dbba1161016f5780634e1273f41161013e5780634e1273f41461040557806359646463146104425780635fe212ef1461046d57806369fc551a14610498576101cc565b80631d40dbba146103585780632693ebf2146103745780632eb2c2d6146103b157806334ce10c4146103da576101cc565b80630e89341c116101ab5780630e89341c146102765780631253c546146102b357806315bbd78f146102f05780631af9cf491461031b576101cc565b8062fdd58e146101d157806301ffc9a71461020e57806306fdde031461024b575b600080fd5b3480156101dd57600080fd5b506101f860048036038101906101f39190612b7c565b61078b565b60405161020591906133cb565b60405180910390f35b34801561021a57600080fd5b5061023560048036038101906102309190612c90565b610854565b60405161024291906131ae565b60405180910390f35b34801561025757600080fd5b50610260610936565b60405161026d91906131c9565b60405180910390f35b34801561028257600080fd5b5061029d60048036038101906102989190612ce2565b6109c4565b6040516102aa91906131c9565b60405180910390f35b3480156102bf57600080fd5b506102da60048036038101906102d59190612ce2565b610a69565b6040516102e791906131c9565b60405180910390f35b3480156102fc57600080fd5b50610305610b09565b60405161031291906133cb565b60405180910390f35b34801561032757600080fd5b50610342600480360381019061033d9190612ce2565b610b0f565b60405161034f91906133cb565b60405180910390f35b610372600480360381019061036d9190612ae8565b610b2c565b005b34801561038057600080fd5b5061039b60048036038101906103969190612ce2565b610c90565b6040516103a891906133cb565b60405180910390f35b3480156103bd57600080fd5b506103d860048036038101906103d3919061299a565b610ca8565b005b3480156103e657600080fd5b506103ef610d49565b6040516103fc91906133cb565b60405180910390f35b34801561041157600080fd5b5061042c60048036038101906104279190612c24565b610d53565b6040516104399190613155565b60405180910390f35b34801561044e57600080fd5b50610457610f04565b60405161046491906133cb565b60405180910390f35b34801561047957600080fd5b50610482610f0a565b60405161048f91906133cb565b60405180910390f35b6104b260048036038101906104ad9190612bb8565b610f10565b6040516104bf91906133cb565b60405180910390f35b3480156104d457600080fd5b506104dd611012565b005b3480156104eb57600080fd5b5061050660048036038101906105019190612ce2565b61109a565b60405161051391906133cb565b60405180910390f35b34801561052857600080fd5b506105316110b2565b60405161053e9190613078565b60405180910390f35b34801561055357600080fd5b5061056e60048036038101906105699190612d0b565b6110dc565b005b34801561057c57600080fd5b5061058561119b565b60405161059291906131c9565b60405180910390f35b3480156105a757600080fd5b506105c260048036038101906105bd9190612b40565b611229565b005b3480156105d057600080fd5b506105d961123f565b6040516105e691906133cb565b60405180910390f35b3480156105fb57600080fd5b5061060461125c565b6040516106119190613078565b60405180910390f35b34801561062657600080fd5b50610641600480360381019061063c9190612935565b611282565b60405161064e91906133cb565b60405180910390f35b34801561066357600080fd5b5061067e60048036038101906106799190612ce2565b611309565b60405161068b9190613078565b60405180910390f35b3480156106a057600080fd5b506106bb60048036038101906106b69190612ce2565b61133c565b6040516106c89190613078565b60405180910390f35b3480156106dd57600080fd5b506106e6611379565b6040516106f391906131c9565b60405180910390f35b34801561070857600080fd5b50610723600480360381019061071e919061295e565b611407565b60405161073091906131ae565b60405180910390f35b34801561074557600080fd5b50610760600480360381019061075b9190612a59565b61149b565b005b34801561076e57600080fd5b5061078960048036038101906107849190612935565b61153c565b005b60008073ffffffffffffffffffffffffffffffffffffffff168373ffffffffffffffffffffffffffffffffffffffff1614156107fc576040517f08c379a00000000000000000000000000000000000000000000000000000000081526004016107f39061324b565b60405180910390fd5b60008083815260200190815260200160002060008473ffffffffffffffffffffffffffffffffffffffff1673ffffffffffffffffffffffffffffffffffffffff16815260200190815260200160002054905092915050565b60007fd9b67a26000000000000000000000000000000000000000000000000000000007bffffffffffffffffffffffffffffffffffffffffffffffffffffffff1916827bffffffffffffffffffffffffffffffffffffffffffffffffffffffff1916148061091f57507f0e89341c000000000000000000000000000000000000000000000000000000007bffffffffffffffffffffffffffffffffffffffffffffffffffffffff1916827bffffffffffffffffffffffffffffffffffffffffffffffffffffffff1916145b8061092f575061092e8261164a565b5b9050919050565b600880546109439061371f565b80601f016020809104026020016040519081016040528092919081815260200182805461096f9061371f565b80156109bc5780601f10610991576101008083540402835291602001916109bc565b820191906000526020600020905b81548152906001019060200180831161099f57829003601f168201915b505050505081565b60606007600083815260200190815260200160002080546109e49061371f565b80601f0160208091040260200160405190810160405280929190818152602001828054610a109061371f565b8015610a5d5780601f10610a3257610100808354040283529160200191610a5d565b820191906000526020600020905b815481529060010190602001808311610a4057829003601f168201915b50505050509050919050565b60076020528060005260406000206000915090508054610a889061371f565b80601f0160208091040260200160405190810160405280929190818152602001828054610ab49061371f565b8015610b015780601f10610ad657610100808354040283529160200191610b01565b820191906000526020600020905b815481529060010190602001808311610ae457829003601f168201915b505050505081565b600f5481565b6000600b6000838152602001908152602001600020549050919050565b343383839050600081600e54610b4291906135db565b9050601054610b51600d6116b4565b11610b675781600f54610b6491906135db565b90505b601160009054906101000a900473ffffffffffffffffffffffffffffffffffffffff1673ffffffffffffffffffffffffffffffffffffffff168373ffffffffffffffffffffffffffffffffffffffff161415610bc257600090505b808414610c04576040517f08c379a0000000000000000000000000000000000000000000000000000000008152600401610bfb9061322b565b60405180910390fd5b60005b86869050811015610c8657610c68886001898985818110610c51577f4e487b7100000000000000000000000000000000000000000000000000000000600052603260045260246000fd5b9050602002810190610c63919061340f565b6116c2565b50610c73600d611634565b8080610c7e90613782565b915050610c07565b5050505050505050565b60066020528060005260406000206000915090505481565b610cb061178f565b73ffffffffffffffffffffffffffffffffffffffff168573ffffffffffffffffffffffffffffffffffffffff161480610cf65750610cf585610cf061178f565b611407565b5b610d35576040517f08c379a0000000000000000000000000000000000000000000000000000000008152600401610d2c906132cb565b60405180910390fd5b610d428585858585611797565b5050505050565b6000600c54905090565b60608151835114610d99576040517f08c379a0000000000000000000000000000000000000000000000000000000008152600401610d909061334b565b60405180910390fd5b6000835167ffffffffffffffff811115610ddc577f4e487b7100000000000000000000000000000000000000000000000000000000600052604160045260246000fd5b604051908082528060200260200182016040528015610e0a5781602001602082028036833780820191505090505b50905060005b8451811015610ef957610ea3858281518110610e55577f4e487b7100000000000000000000000000000000000000000000000000000000600052603260045260246000fd5b6020026020010151858381518110610e96577f4e487b7100000000000000000000000000000000000000000000000000000000600052603260045260246000fd5b602002602001015161078b565b828281518110610edc577f4e487b7100000000000000000000000000000000000000000000000000000000600052603260045260246000fd5b60200260200101818152505080610ef290613782565b9050610e10565b508091505092915050565b600e5481565b60105481565b600034336001600081600e54610f2691906135db565b9050601054610f35600d6116b4565b11610f4b5781600f54610f4891906135db565b90505b601160009054906101000a900473ffffffffffffffffffffffffffffffffffffffff1673ffffffffffffffffffffffffffffffffffffffff168373ffffffffffffffffffffffffffffffffffffffff161415610fa657600090505b808414610fe8576040517f08c379a0000000000000000000000000000000000000000000000000000000008152600401610fdf9061322b565b60405180910390fd5b6000610ff68a8a8a8a6116c2565b9050611002600d611634565b8095505050505050949350505050565b61101a61178f565b73ffffffffffffffffffffffffffffffffffffffff166110386110b2565b73ffffffffffffffffffffffffffffffffffffffff161461108e576040517f08c379a00000000000000000000000000000000000000000000000000000000081526004016110859061330b565b60405180910390fd5b6110986000611af7565b565b600b6020528060005260406000206000915090505481565b6000600360009054906101000a900473ffffffffffffffffffffffffffffffffffffffff16905090565b813373ffffffffffffffffffffffffffffffffffffffff166005600083815260200190815260200160002060009054906101000a900473ffffffffffffffffffffffffffffffffffffffff1673ffffffffffffffffffffffffffffffffffffffff161461117e576040517f08c379a0000000000000000000000000000000000000000000000000000000008152600401611175906133ab565b60405180910390fd5b81600b600085815260200190815260200160002081905550505050565b600980546111a89061371f565b80601f01602080910402602001604051908101604052809291908181526020018280546111d49061371f565b80156112215780601f106111f657610100808354040283529160200191611221565b820191906000526020600020905b81548152906001019060200180831161120457829003601f168201915b505050505081565b61123b61123461178f565b8383611bbd565b5050565b6000600161124d600d6116b4565b6112579190613635565b905090565b601160009054906101000a900473ffffffffffffffffffffffffffffffffffffffff1681565b6000601160009054906101000a900473ffffffffffffffffffffffffffffffffffffffff1673ffffffffffffffffffffffffffffffffffffffff168273ffffffffffffffffffffffffffffffffffffffff1614156112e35760009050611304565b6010546112ee61123f565b10156112fe57600f549050611304565b600e5490505b919050565b60056020528060005260406000206000915054906101000a900473ffffffffffffffffffffffffffffffffffffffff1681565b60006005600083815260200190815260200160002060009054906101000a900473ffffffffffffffffffffffffffffffffffffffff169050919050565b600a80546113869061371f565b80601f01602080910402602001604051908101604052809291908181526020018280546113b29061371f565b80156113ff5780601f106113d4576101008083540402835291602001916113ff565b820191906000526020600020905b8154815290600101906020018083116113e257829003601f168201915b505050505081565b6000600160008473ffffffffffffffffffffffffffffffffffffffff1673ffffffffffffffffffffffffffffffffffffffff16815260200190815260200160002060008373ffffffffffffffffffffffffffffffffffffffff1673ffffffffffffffffffffffffffffffffffffffff16815260200190815260200160002060009054906101000a900460ff16905092915050565b6114a361178f565b73ffffffffffffffffffffffffffffffffffffffff168573ffffffffffffffffffffffffffffffffffffffff1614806114e957506114e8856114e361178f565b611407565b5b611528576040517f08c379a000000000000000000000000000000000000000000000000000000000815260040161151f9061328b565b60405180910390fd5b6115358585858585611d2a565b5050505050565b61154461178f565b73ffffffffffffffffffffffffffffffffffffffff166115626110b2565b73ffffffffffffffffffffffffffffffffffffffff16146115b8576040517f08c379a00000000000000000000000000000000000000000000000000000000081526004016115af9061330b565b60405180910390fd5b600073ffffffffffffffffffffffffffffffffffffffff168173ffffffffffffffffffffffffffffffffffffffff161415611628576040517f08c379a000000000000000000000000000000000000000000000000000000000815260040161161f9061326b565b60405180910390fd5b61163181611af7565b50565b6001816000016000828254019250508190555050565b60007f01ffc9a7000000000000000000000000000000000000000000000000000000007bffffffffffffffffffffffffffffffffffffffffffffffffffffffff1916827bffffffffffffffffffffffffffffffffffffffffffffffffffffffff1916149050919050565b600081600001549050919050565b6000806116cf60046116b4565b90506116db6004611634565b6116f686828760405180602001604052806000815250611fac565b846006600083815260200190815260200160002081905550336005600083815260200190815260200160002060006101000a81548173ffffffffffffffffffffffffffffffffffffffff021916908373ffffffffffffffffffffffffffffffffffffffff1602179055508383600760008481526020019081526020016000209190611782929190612601565b5080915050949350505050565b600033905090565b81518351146117db576040517f08c379a00000000000000000000000000000000000000000000000000000000081526004016117d29061336b565b60405180910390fd5b600073ffffffffffffffffffffffffffffffffffffffff168473ffffffffffffffffffffffffffffffffffffffff16141561184b576040517f08c379a0000000000000000000000000000000000000000000000000000000008152600401611842906132ab565b60405180910390fd5b600061185561178f565b9050611865818787878787612142565b60005b8451811015611a625760008582815181106118ac577f4e487b7100000000000000000000000000000000000000000000000000000000600052603260045260246000fd5b6020026020010151905060008583815181106118f1577f4e487b7100000000000000000000000000000000000000000000000000000000600052603260045260246000fd5b60200260200101519050600080600084815260200190815260200160002060008b73ffffffffffffffffffffffffffffffffffffffff1673ffffffffffffffffffffffffffffffffffffffff16815260200190815260200160002054905081811015611992576040517f08c379a0000000000000000000000000000000000000000000000000000000008152600401611989906132eb565b60405180910390fd5b81810360008085815260200190815260200160002060008c73ffffffffffffffffffffffffffffffffffffffff1673ffffffffffffffffffffffffffffffffffffffff168152602001908152602001600020819055508160008085815260200190815260200160002060008b73ffffffffffffffffffffffffffffffffffffffff1673ffffffffffffffffffffffffffffffffffffffff1681526020019081526020016000206000828254611a479190613585565b9250508190555050505080611a5b90613782565b9050611868565b508473ffffffffffffffffffffffffffffffffffffffff168673ffffffffffffffffffffffffffffffffffffffff168273ffffffffffffffffffffffffffffffffffffffff167f4a39dc06d4c0dbc64b70af90fd698a233a518aa5d07e595d983b8c0526c8f7fb8787604051611ad9929190613177565b60405180910390a4611aef81878787878761214a565b505050505050565b6000600360009054906101000a900473ffffffffffffffffffffffffffffffffffffffff16905081600360006101000a81548173ffffffffffffffffffffffffffffffffffffffff021916908373ffffffffffffffffffffffffffffffffffffffff1602179055508173ffffffffffffffffffffffffffffffffffffffff168173ffffffffffffffffffffffffffffffffffffffff167f8be0079c531659141344cd1fd0a4f28419497f9722a3daafe3b4186f6b6457e060405160405180910390a35050565b8173ffffffffffffffffffffffffffffffffffffffff168373ffffffffffffffffffffffffffffffffffffffff161415611c2c576040517f08c379a0000000000000000000000000000000000000000000000000000000008152600401611c239061332b565b60405180910390fd5b80600160008573ffffffffffffffffffffffffffffffffffffffff1673ffffffffffffffffffffffffffffffffffffffff16815260200190815260200160002060008473ffffffffffffffffffffffffffffffffffffffff1673ffffffffffffffffffffffffffffffffffffffff16815260200190815260200160002060006101000a81548160ff0219169083151502179055508173ffffffffffffffffffffffffffffffffffffffff168373ffffffffffffffffffffffffffffffffffffffff167f17307eab39ab6107e8899845ad3d59bd9653f200f220920489ca2b5937696c3183604051611d1d91906131ae565b60405180910390a3505050565b600073ffffffffffffffffffffffffffffffffffffffff168473ffffffffffffffffffffffffffffffffffffffff161415611d9a576040517f08c379a0000000000000000000000000000000000000000000000000000000008152600401611d91906132ab565b60405180910390fd5b6000611da461178f565b9050611dc4818787611db588612331565b611dbe88612331565b87612142565b600080600086815260200190815260200160002060008873ffffffffffffffffffffffffffffffffffffffff1673ffffffffffffffffffffffffffffffffffffffff16815260200190815260200160002054905083811015611e5b576040517f08c379a0000000000000000000000000000000000000000000000000000000008152600401611e52906132eb565b60405180910390fd5b83810360008087815260200190815260200160002060008973ffffffffffffffffffffffffffffffffffffffff1673ffffffffffffffffffffffffffffffffffffffff168152602001908152602001600020819055508360008087815260200190815260200160002060008873ffffffffffffffffffffffffffffffffffffffff1673ffffffffffffffffffffffffffffffffffffffff1681526020019081526020016000206000828254611f109190613585565b925050819055508573ffffffffffffffffffffffffffffffffffffffff168773ffffffffffffffffffffffffffffffffffffffff168373ffffffffffffffffffffffffffffffffffffffff167fc3d58168c5ae7397731d063d5bbf3d657854427343f4c083240f7aacaa2d0f628888604051611f8d9291906133e6565b60405180910390a4611fa38288888888886123f7565b50505050505050565b600073ffffffffffffffffffffffffffffffffffffffff168473ffffffffffffffffffffffffffffffffffffffff16141561201c576040517f08c379a00000000000000000000000000000000000000000000000000000000081526004016120139061338b565b60405180910390fd5b600061202661178f565b90506120478160008761203888612331565b61204188612331565b87612142565b8260008086815260200190815260200160002060008773ffffffffffffffffffffffffffffffffffffffff1673ffffffffffffffffffffffffffffffffffffffff16815260200190815260200160002060008282546120a69190613585565b925050819055508473ffffffffffffffffffffffffffffffffffffffff16600073ffffffffffffffffffffffffffffffffffffffff168273ffffffffffffffffffffffffffffffffffffffff167fc3d58168c5ae7397731d063d5bbf3d657854427343f4c083240f7aacaa2d0f6287876040516121249291906133e6565b60405180910390a461213b816000878787876123f7565b5050505050565b505050505050565b6121698473ffffffffffffffffffffffffffffffffffffffff166125de565b15612329578373ffffffffffffffffffffffffffffffffffffffff1663bc197c8187878686866040518663ffffffff1660e01b81526004016121af959493929190613093565b602060405180830381600087803b1580156121c957600080fd5b505af19250505080156121fa57506040513d601f19601f820116820180604052508101906121f79190612cb9565b60015b6122a057612206613858565b806308c379a01415612263575061221b613ced565b806122265750612265565b806040517f08c379a000000000000000000000000000000000000000000000000000000000815260040161225a91906131c9565b60405180910390fd5b505b6040517f08c379a0000000000000000000000000000000000000000000000000000000008152600401612297906131eb565b60405180910390fd5b63bc197c8160e01b7bffffffffffffffffffffffffffffffffffffffffffffffffffffffff1916817bffffffffffffffffffffffffffffffffffffffffffffffffffffffff191614612327576040517f08c379a000000000000000000000000000000000000000000000000000000000815260040161231e9061320b565b60405180910390fd5b505b505050505050565b60606000600167ffffffffffffffff811115612376577f4e487b7100000000000000000000000000000000000000000000000000000000600052604160045260246000fd5b6040519080825280602002602001820160405280156123a45781602001602082028036833780820191505090505b50905082816000815181106123e2577f4e487b7100000000000000000000000000000000000000000000000000000000600052603260045260246000fd5b60200260200101818152505080915050919050565b6124168473ffffffffffffffffffffffffffffffffffffffff166125de565b156125d6578373ffffffffffffffffffffffffffffffffffffffff1663f23a6e6187878686866040518663ffffffff1660e01b815260040161245c9594939291906130fb565b602060405180830381600087803b15801561247657600080fd5b505af19250505080156124a757506040513d601f19601f820116820180604052508101906124a49190612cb9565b60015b61254d576124b3613858565b806308c379a0141561251057506124c8613ced565b806124d35750612512565b806040517f08c379a000000000000000000000000000000000000000000000000000000000815260040161250791906131c9565b60405180910390fd5b505b6040517f08c379a0000000000000000000000000000000000000000000000000000000008152600401612544906131eb565b60405180910390fd5b63f23a6e6160e01b7bffffffffffffffffffffffffffffffffffffffffffffffffffffffff1916817bffffffffffffffffffffffffffffffffffffffffffffffffffffffff1916146125d4576040517f08c379a00000000000000000000000000000000000000000000000000000000081526004016125cb9061320b565b60405180910390fd5b505b505050505050565b6000808273ffffffffffffffffffffffffffffffffffffffff163b119050919050565b82805461260d9061371f565b90600052602060002090601f01602090048101928261262f5760008555612676565b82601f1061264857803560ff1916838001178555612676565b82800160010185558215612676579182015b8281111561267557823582559160200191906001019061265a565b5b5090506126839190612687565b5090565b5b808211156126a0576000816000905550600101612688565b5090565b60006126b76126b28461348b565b613466565b905080838252602082019050828560208602820111156126d657600080fd5b60005b8581101561270657816126ec88826127ba565b8452602084019350602083019250506001810190506126d9565b5050509392505050565b600061272361271e846134b7565b613466565b9050808382526020820190508285602086028201111561274257600080fd5b60005b8581101561277257816127588882612920565b845260208401935060208301925050600181019050612745565b5050509392505050565b600061278f61278a846134e3565b613466565b9050828152602081018484840111156127a757600080fd5b6127b28482856136dd565b509392505050565b6000813590506127c981613d83565b92915050565b600082601f8301126127e057600080fd5b81356127f08482602086016126a4565b91505092915050565b60008083601f84011261280b57600080fd5b8235905067ffffffffffffffff81111561282457600080fd5b60208301915083602082028301111561283c57600080fd5b9250929050565b600082601f83011261285457600080fd5b8135612864848260208601612710565b91505092915050565b60008135905061287c81613d9a565b92915050565b60008135905061289181613db1565b92915050565b6000815190506128a681613db1565b92915050565b600082601f8301126128bd57600080fd5b81356128cd84826020860161277c565b91505092915050565b60008083601f8401126128e857600080fd5b8235905067ffffffffffffffff81111561290157600080fd5b60208301915083600182028301111561291957600080fd5b9250929050565b60008135905061292f81613dc8565b92915050565b60006020828403121561294757600080fd5b6000612955848285016127ba565b91505092915050565b6000806040838503121561297157600080fd5b600061297f858286016127ba565b9250506020612990858286016127ba565b9150509250929050565b600080600080600060a086880312156129b257600080fd5b60006129c0888289016127ba565b95505060206129d1888289016127ba565b945050604086013567ffffffffffffffff8111156129ee57600080fd5b6129fa88828901612843565b935050606086013567ffffffffffffffff811115612a1757600080fd5b612a2388828901612843565b925050608086013567ffffffffffffffff811115612a4057600080fd5b612a4c888289016128ac565b9150509295509295909350565b600080600080600060a08688031215612a7157600080fd5b6000612a7f888289016127ba565b9550506020612a90888289016127ba565b9450506040612aa188828901612920565b9350506060612ab288828901612920565b925050608086013567ffffffffffffffff811115612acf57600080fd5b612adb888289016128ac565b9150509295509295909350565b600080600060408486031215612afd57600080fd5b6000612b0b868287016127ba565b935050602084013567ffffffffffffffff811115612b2857600080fd5b612b34868287016127f9565b92509250509250925092565b60008060408385031215612b5357600080fd5b6000612b61858286016127ba565b9250506020612b728582860161286d565b9150509250929050565b60008060408385031215612b8f57600080fd5b6000612b9d858286016127ba565b9250506020612bae85828601612920565b9150509250929050565b60008060008060608587031215612bce57600080fd5b6000612bdc878288016127ba565b9450506020612bed87828801612920565b935050604085013567ffffffffffffffff811115612c0a57600080fd5b612c16878288016128d6565b925092505092959194509250565b60008060408385031215612c3757600080fd5b600083013567ffffffffffffffff811115612c5157600080fd5b612c5d858286016127cf565b925050602083013567ffffffffffffffff811115612c7a57600080fd5b612c8685828601612843565b9150509250929050565b600060208284031215612ca257600080fd5b6000612cb084828501612882565b91505092915050565b600060208284031215612ccb57600080fd5b6000612cd984828501612897565b91505092915050565b600060208284031215612cf457600080fd5b6000612d0284828501612920565b91505092915050565b60008060408385031215612d1e57600080fd5b6000612d2c85828601612920565b9250506020612d3d85828601612920565b9150509250929050565b6000612d53838361305a565b60208301905092915050565b612d6881613669565b82525050565b6000612d7982613524565b612d838185613552565b9350612d8e83613514565b8060005b83811015612dbf578151612da68882612d47565b9750612db183613545565b925050600181019050612d92565b5085935050505092915050565b612dd58161367b565b82525050565b6000612de68261352f565b612df08185613563565b9350612e008185602086016136ec565b612e098161387a565b840191505092915050565b6000612e1f8261353a565b612e298185613574565b9350612e398185602086016136ec565b612e428161387a565b840191505092915050565b6000612e5a603483613574565b9150612e6582613898565b604082019050919050565b6000612e7d602883613574565b9150612e88826138e7565b604082019050919050565b6000612ea0600e83613574565b9150612eab82613936565b602082019050919050565b6000612ec3602b83613574565b9150612ece8261395f565b604082019050919050565b6000612ee6602683613574565b9150612ef1826139ae565b604082019050919050565b6000612f09602983613574565b9150612f14826139fd565b604082019050919050565b6000612f2c602583613574565b9150612f3782613a4c565b604082019050919050565b6000612f4f603283613574565b9150612f5a82613a9b565b604082019050919050565b6000612f72602a83613574565b9150612f7d82613aea565b604082019050919050565b6000612f95602083613574565b9150612fa082613b39565b602082019050919050565b6000612fb8602983613574565b9150612fc382613b62565b604082019050919050565b6000612fdb602983613574565b9150612fe682613bb1565b604082019050919050565b6000612ffe602883613574565b915061300982613c00565b604082019050919050565b6000613021602183613574565b915061302c82613c4f565b604082019050919050565b6000613044603183613574565b915061304f82613c9e565b604082019050919050565b613063816136d3565b82525050565b613072816136d3565b82525050565b600060208201905061308d6000830184612d5f565b92915050565b600060a0820190506130a86000830188612d5f565b6130b56020830187612d5f565b81810360408301526130c78186612d6e565b905081810360608301526130db8185612d6e565b905081810360808301526130ef8184612ddb565b90509695505050505050565b600060a0820190506131106000830188612d5f565b61311d6020830187612d5f565b61312a6040830186613069565b6131376060830185613069565b81810360808301526131498184612ddb565b90509695505050505050565b6000602082019050818103600083015261316f8184612d6e565b905092915050565b600060408201905081810360008301526131918185612d6e565b905081810360208301526131a58184612d6e565b90509392505050565b60006020820190506131c36000830184612dcc565b92915050565b600060208201905081810360008301526131e38184612e14565b905092915050565b6000602082019050818103600083015261320481612e4d565b9050919050565b6000602082019050818103600083015261322481612e70565b9050919050565b6000602082019050818103600083015261324481612e93565b9050919050565b6000602082019050818103600083015261326481612eb6565b9050919050565b6000602082019050818103600083015261328481612ed9565b9050919050565b600060208201905081810360008301526132a481612efc565b9050919050565b600060208201905081810360008301526132c481612f1f565b9050919050565b600060208201905081810360008301526132e481612f42565b9050919050565b6000602082019050818103600083015261330481612f65565b9050919050565b6000602082019050818103600083015261332481612f88565b9050919050565b6000602082019050818103600083015261334481612fab565b9050919050565b6000602082019050818103600083015261336481612fce565b9050919050565b6000602082019050818103600083015261338481612ff1565b9050919050565b600060208201905081810360008301526133a481613014565b9050919050565b600060208201905081810360008301526133c481613037565b9050919050565b60006020820190506133e06000830184613069565b92915050565b60006040820190506133fb6000830185613069565b6134086020830184613069565b9392505050565b6000808335600160200384360303811261342857600080fd5b80840192508235915067ffffffffffffffff82111561344657600080fd5b60208301925060018202360383131561345e57600080fd5b509250929050565b6000613470613481565b905061347c8282613751565b919050565b6000604051905090565b600067ffffffffffffffff8211156134a6576134a5613829565b5b602082029050602081019050919050565b600067ffffffffffffffff8211156134d2576134d1613829565b5b602082029050602081019050919050565b600067ffffffffffffffff8211156134fe576134fd613829565b5b6135078261387a565b9050602081019050919050565b6000819050602082019050919050565b600081519050919050565b600081519050919050565b600081519050919050565b6000602082019050919050565b600082825260208201905092915050565b600082825260208201905092915050565b600082825260208201905092915050565b6000613590826136d3565b915061359b836136d3565b9250827fffffffffffffffffffffffffffffffffffffffffffffffffffffffffffffffff038211156135d0576135cf6137cb565b5b828201905092915050565b60006135e6826136d3565b91506135f1836136d3565b9250817fffffffffffffffffffffffffffffffffffffffffffffffffffffffffffffffff048311821515161561362a576136296137cb565b5b828202905092915050565b6000613640826136d3565b915061364b836136d3565b92508282101561365e5761365d6137cb565b5b828203905092915050565b6000613674826136b3565b9050919050565b60008115159050919050565b60007fffffffff0000000000000000000000000000000000000000000000000000000082169050919050565b600073ffffffffffffffffffffffffffffffffffffffff82169050919050565b6000819050919050565b82818337600083830152505050565b60005b8381101561370a5780820151818401526020810190506136ef565b83811115613719576000848401525b50505050565b6000600282049050600182168061373757607f821691505b6020821081141561374b5761374a6137fa565b5b50919050565b61375a8261387a565b810181811067ffffffffffffffff8211171561377957613778613829565b5b80604052505050565b600061378d826136d3565b91507fffffffffffffffffffffffffffffffffffffffffffffffffffffffffffffffff8214156137c0576137bf6137cb565b5b600182019050919050565b7f4e487b7100000000000000000000000000000000000000000000000000000000600052601160045260246000fd5b7f4e487b7100000000000000000000000000000000000000000000000000000000600052602260045260246000fd5b7f4e487b7100000000000000000000000000000000000000000000000000000000600052604160045260246000fd5b600060033d11156138775760046000803e61387460005161388b565b90505b90565b6000601f19601f8301169050919050565b60008160e01c9050919050565b7f455243313135353a207472616e7366657220746f206e6f6e204552433131353560008201527f526563656976657220696d706c656d656e746572000000000000000000000000602082015250565b7f455243313135353a204552433131353552656365697665722072656a6563746560008201527f6420746f6b656e73000000000000000000000000000000000000000000000000602082015250565b7f4e6f7420656e6f75676820666565000000000000000000000000000000000000600082015250565b7f455243313135353a2062616c616e636520717565727920666f7220746865207a60008201527f65726f2061646472657373000000000000000000000000000000000000000000602082015250565b7f4f776e61626c653a206e6577206f776e657220697320746865207a65726f206160008201527f6464726573730000000000000000000000000000000000000000000000000000602082015250565b7f455243313135353a2063616c6c6572206973206e6f74206f776e6572206e6f7260008201527f20617070726f7665640000000000000000000000000000000000000000000000602082015250565b7f455243313135353a207472616e7366657220746f20746865207a65726f20616460008201527f6472657373000000000000000000000000000000000000000000000000000000602082015250565b7f455243313135353a207472616e736665722063616c6c6572206973206e6f742060008201527f6f776e6572206e6f7220617070726f7665640000000000000000000000000000602082015250565b7f455243313135353a20696e73756666696369656e742062616c616e636520666f60008201527f72207472616e7366657200000000000000000000000000000000000000000000602082015250565b7f4f776e61626c653a2063616c6c6572206973206e6f7420746865206f776e6572600082015250565b7f455243313135353a2073657474696e6720617070726f76616c2073746174757360008201527f20666f722073656c660000000000000000000000000000000000000000000000602082015250565b7f455243313135353a206163636f756e747320616e6420696473206c656e67746860008201527f206d69736d617463680000000000000000000000000000000000000000000000602082015250565b7f455243313135353a2069647320616e6420616d6f756e7473206c656e6774682060008201527f6d69736d61746368000000000000000000000000000000000000000000000000602082015250565b7f455243313135353a206d696e7420746f20746865207a65726f2061646472657360008201527f7300000000000000000000000000000000000000000000000000000000000000602082015250565b7f455243313135355472616461626c652363726561746f724f6e6c793a204f4e4c60008201527f595f43524541544f525f414c4c4f574544000000000000000000000000000000602082015250565b600060443d1015613cfd57613d80565b613d05613481565b60043d036004823e80513d602482011167ffffffffffffffff82111715613d2d575050613d80565b808201805167ffffffffffffffff811115613d4b5750505050613d80565b80602083010160043d038501811115613d68575050505050613d80565b613d7782602001850186613751565b82955050505050505b90565b613d8c81613669565b8114613d9757600080fd5b50565b613da38161367b565b8114613dae57600080fd5b50565b613dba81613687565b8114613dc557600080fd5b50565b613dd1816136d3565b8114613ddc57600080fd5b5056fea2646970667358221220381f77d925ab539b8c298be7c6039d5aca5cbaca715e900c9bf145cb6c85570d64736f6c63430008040033",
    "linkReferences": {},
    "deployedLinkReferences": {}
}