{
    "_format": "hh-sol-artifact-1",
    "contractName": "ERC721Collection",
    "sourceName": "contracts/ERC721Collection.sol",
    "abi": [
        {
            "inputs": [
                {
                    "internalType": "string",
                    "name": "_name",
                    "type": "string"
                },
                {
                    "internalType": "string",
                    "name": "_symbol",
                    "type": "string"
                },
                {
                    "internalType": "string",
                    "name": "_uri",
                    "type": "string"
                }
            ],
            "stateMutability": "nonpayable",
            "type": "constructor"
        },
        {
            "anonymous": false,
            "inputs": [
                {
                    "indexed": true,
                    "internalType": "address",
                    "name": "owner",
                    "type": "address"
                },
                {
                    "indexed": true,
                    "internalType": "address",
                    "name": "approved",
                    "type": "address"
                },
                {
                    "indexed": true,
                    "internalType": "uint256",
                    "name": "tokenId",
                    "type": "uint256"
                }
            ],
            "name": "Approval",
            "type": "event"
        },
        {
            "anonymous": false,
            "inputs": [
                {
                    "indexed": true,
                    "internalType": "address",
                    "name": "owner",
                    "type": "address"
                },
                {
                    "indexed": true,
                    "internalType": "address",
                    "name": "operator",
                    "type": "address"
                },
                {
                    "indexed": false,
                    "internalType": "bool",
                    "name": "approved",
                    "type": "bool"
                }
            ],
            "name": "ApprovalForAll",
            "type": "event"
        },
        {
            "anonymous": false,
            "inputs": [
                {
                    "indexed": true,
                    "internalType": "address",
                    "name": "previousOwner",
                    "type": "address"
                },
                {
                    "indexed": true,
                    "internalType": "address",
                    "name": "newOwner",
                    "type": "address"
                }
            ],
            "name": "OwnershipTransferred",
            "type": "event"
        },
        {
            "anonymous": false,
            "inputs": [
                {
                    "indexed": true,
                    "internalType": "address",
                    "name": "from",
                    "type": "address"
                },
                {
                    "indexed": true,
                    "internalType": "address",
                    "name": "to",
                    "type": "address"
                },
                {
                    "indexed": true,
                    "internalType": "uint256",
                    "name": "tokenId",
                    "type": "uint256"
                }
            ],
            "name": "Transfer",
            "type": "event"
        },
        {
            "inputs": [
                {
                    "internalType": "address",
                    "name": "to",
                    "type": "address"
                },
                {
                    "internalType": "uint256",
                    "name": "tokenId",
                    "type": "uint256"
                }
            ],
            "name": "approve",
            "outputs": [],
            "stateMutability": "nonpayable",
            "type": "function"
        },
        {
            "inputs": [
                {
                    "internalType": "address",
                    "name": "owner",
                    "type": "address"
                }
            ],
            "name": "balanceOf",
            "outputs": [
                {
                    "internalType": "uint256",
                    "name": "",
                    "type": "uint256"
                }
            ],
            "stateMutability": "view",
            "type": "function"
        },
        {
            "inputs": [
                {
                    "internalType": "uint256",
                    "name": "_id",
                    "type": "uint256"
                }
            ],
            "name": "burn",
            "outputs": [],
            "stateMutability": "nonpayable",
            "type": "function"
        },
        {
            "inputs": [],
            "name": "contractURI",
            "outputs": [
                {
                    "internalType": "string",
                    "name": "",
                    "type": "string"
                }
            ],
            "stateMutability": "view",
            "type": "function"
        },
        {
            "inputs": [
                {
                    "internalType": "address",
                    "name": "_initialOwner",
                    "type": "address"
                },
                {
                    "internalType": "string",
                    "name": "_uri",
                    "type": "string"
                },
                {
                    "internalType": "uint256",
                    "name": "_royalty",
                    "type": "uint256"
                }
            ],
            "name": "createAndSetRoyal",
            "outputs": [
                {
                    "internalType": "uint256",
                    "name": "",
                    "type": "uint256"
                }
            ],
            "stateMutability": "nonpayable",
            "type": "function"
        },
        {
            "inputs": [
                {
                    "internalType": "uint256",
                    "name": "",
                    "type": "uint256"
                }
            ],
            "name": "creators",
            "outputs": [
                {
                    "internalType": "address",
                    "name": "",
                    "type": "address"
                }
            ],
            "stateMutability": "view",
            "type": "function"
        },
        {
            "inputs": [
                {
                    "internalType": "uint256",
                    "name": "tokenId",
                    "type": "uint256"
                }
            ],
            "name": "getApproved",
            "outputs": [
                {
                    "internalType": "address",
                    "name": "",
                    "type": "address"
                }
            ],
            "stateMutability": "view",
            "type": "function"
        },
        {
            "inputs": [
                {
                    "internalType": "uint256",
                    "name": "_id",
                    "type": "uint256"
                }
            ],
            "name": "getCreator",
            "outputs": [
                {
                    "internalType": "address",
                    "name": "",
                    "type": "address"
                }
            ],
            "stateMutability": "view",
            "type": "function"
        },
        {
            "inputs": [],
            "name": "getDecimal",
            "outputs": [
                {
                    "internalType": "uint256",
                    "name": "",
                    "type": "uint256"
                }
            ],
            "stateMutability": "view",
            "type": "function"
        },
        {
            "inputs": [
                {
                    "internalType": "uint256",
                    "name": "_id",
                    "type": "uint256"
                }
            ],
            "name": "getRoyalty",
            "outputs": [
                {
                    "internalType": "uint256",
                    "name": "",
                    "type": "uint256"
                }
            ],
            "stateMutability": "view",
            "type": "function"
        },
        {
            "inputs": [
                {
                    "internalType": "address",
                    "name": "owner",
                    "type": "address"
                },
                {
                    "internalType": "address",
                    "name": "operator",
                    "type": "address"
                }
            ],
            "name": "isApprovedForAll",
            "outputs": [
                {
                    "internalType": "bool",
                    "name": "",
                    "type": "bool"
                }
            ],
            "stateMutability": "view",
            "type": "function"
        },
        {
            "inputs": [
                {
                    "internalType": "address",
                    "name": "_initialOwner",
                    "type": "address"
                },
                {
                    "internalType": "string",
                    "name": "_uri",
                    "type": "string"
                }
            ],
            "name": "mintTo",
            "outputs": [
                {
                    "internalType": "uint256",
                    "name": "",
                    "type": "uint256"
                }
            ],
            "stateMutability": "payable",
            "type": "function"
        },
        {
            "inputs": [],
            "name": "name",
            "outputs": [
                {
                    "internalType": "string",
                    "name": "",
                    "type": "string"
                }
            ],
            "stateMutability": "view",
            "type": "function"
        },
        {
            "inputs": [],
            "name": "owner",
            "outputs": [
                {
                    "internalType": "address",
                    "name": "",
                    "type": "address"
                }
            ],
            "stateMutability": "view",
            "type": "function"
        },
        {
            "inputs": [
                {
                    "internalType": "uint256",
                    "name": "tokenId",
                    "type": "uint256"
                }
            ],
            "name": "ownerOf",
            "outputs": [
                {
                    "internalType": "address",
                    "name": "",
                    "type": "address"
                }
            ],
            "stateMutability": "view",
            "type": "function"
        },
        {
            "inputs": [],
            "name": "renounceOwnership",
            "outputs": [],
            "stateMutability": "nonpayable",
            "type": "function"
        },
        {
            "inputs": [
                {
                    "internalType": "uint256",
                    "name": "",
                    "type": "uint256"
                }
            ],
            "name": "royalties",
            "outputs": [
                {
                    "internalType": "uint256",
                    "name": "",
                    "type": "uint256"
                }
            ],
            "stateMutability": "view",
            "type": "function"
        },
        {
            "inputs": [
                {
                    "internalType": "address",
                    "name": "from",
                    "type": "address"
                },
                {
                    "internalType": "address",
                    "name": "to",
                    "type": "address"
                },
                {
                    "internalType": "uint256",
                    "name": "tokenId",
                    "type": "uint256"
                }
            ],
            "name": "safeTransferFrom",
            "outputs": [],
            "stateMutability": "nonpayable",
            "type": "function"
        },
        {
            "inputs": [
                {
                    "internalType": "address",
                    "name": "from",
                    "type": "address"
                },
                {
                    "internalType": "address",
                    "name": "to",
                    "type": "address"
                },
                {
                    "internalType": "uint256",
                    "name": "tokenId",
                    "type": "uint256"
                },
                {
                    "internalType": "bytes",
                    "name": "_data",
                    "type": "bytes"
                }
            ],
            "name": "safeTransferFrom",
            "outputs": [],
            "stateMutability": "nonpayable",
            "type": "function"
        },
        {
            "inputs": [
                {
                    "internalType": "address",
                    "name": "operator",
                    "type": "address"
                },
                {
                    "internalType": "bool",
                    "name": "approved",
                    "type": "bool"
                }
            ],
            "name": "setApprovalForAll",
            "outputs": [],
            "stateMutability": "nonpayable",
            "type": "function"
        },
        {
            "inputs": [
                {
                    "internalType": "uint256",
                    "name": "_id",
                    "type": "uint256"
                },
                {
                    "internalType": "uint256",
                    "name": "royalty",
                    "type": "uint256"
                }
            ],
            "name": "setRoyalty",
            "outputs": [],
            "stateMutability": "nonpayable",
            "type": "function"
        },
        {
            "inputs": [
                {
                    "internalType": "bytes4",
                    "name": "interfaceId",
                    "type": "bytes4"
                }
            ],
            "name": "supportsInterface",
            "outputs": [
                {
                    "internalType": "bool",
                    "name": "",
                    "type": "bool"
                }
            ],
            "stateMutability": "view",
            "type": "function"
        },
        {
            "inputs": [],
            "name": "symbol",
            "outputs": [
                {
                    "internalType": "string",
                    "name": "",
                    "type": "string"
                }
            ],
            "stateMutability": "view",
            "type": "function"
        },
        {
            "inputs": [
                {
                    "internalType": "uint256",
                    "name": "index",
                    "type": "uint256"
                }
            ],
            "name": "tokenByIndex",
            "outputs": [
                {
                    "internalType": "uint256",
                    "name": "",
                    "type": "uint256"
                }
            ],
            "stateMutability": "view",
            "type": "function"
        },
        {
            "inputs": [
                {
                    "internalType": "address",
                    "name": "owner",
                    "type": "address"
                },
                {
                    "internalType": "uint256",
                    "name": "index",
                    "type": "uint256"
                }
            ],
            "name": "tokenOfOwnerByIndex",
            "outputs": [
                {
                    "internalType": "uint256",
                    "name": "",
                    "type": "uint256"
                }
            ],
            "stateMutability": "view",
            "type": "function"
        },
        {
            "inputs": [
                {
                    "internalType": "uint256",
                    "name": "tokenId",
                    "type": "uint256"
                }
            ],
            "name": "tokenURI",
            "outputs": [
                {
                    "internalType": "string",
                    "name": "",
                    "type": "string"
                }
            ],
            "stateMutability": "view",
            "type": "function"
        },
        {
            "inputs": [],
            "name": "totalSupply",
            "outputs": [
                {
                    "internalType": "uint256",
                    "name": "",
                    "type": "uint256"
                }
            ],
            "stateMutability": "view",
            "type": "function"
        },
        {
            "inputs": [
                {
                    "internalType": "address",
                    "name": "from",
                    "type": "address"
                },
                {
                    "internalType": "address",
                    "name": "to",
                    "type": "address"
                },
                {
                    "internalType": "uint256",
                    "name": "tokenId",
                    "type": "uint256"
                }
            ],
            "name": "transferFrom",
            "outputs": [],
            "stateMutability": "nonpayable",
            "type": "function"
        },
        {
            "inputs": [
                {
                    "internalType": "address",
                    "name": "newOwner",
                    "type": "address"
                }
            ],
            "name": "transferOwnership",
            "outputs": [],
            "stateMutability": "nonpayable",
            "type": "function"
        }
    ],
    "bytecode": "0x608060405260026010553480156200001657600080fd5b506040516200273c3803806200273c833981016040819052620000399162000277565b825183908390620000529060009060208501906200011a565b508051620000689060019060208401906200011a565b505050620000856200007f620000bb60201b60201c565b620000bf565b6200009c600d6200011160201b62000e3b1760201c565b8051620000b190600c9060208401906200011a565b505050506200035b565b3390565b600b80546001600160a01b038381166001600160a01b0319831681179093556040519116919082907f8be0079c531659141344cd1fd0a4f28419497f9722a3daafe3b4186f6b6457e090600090a35050565b80546001019055565b828054620001289062000308565b90600052602060002090601f0160209004810192826200014c576000855562000197565b82601f106200016757805160ff191683800117855562000197565b8280016001018555821562000197579182015b82811115620001975782518255916020019190600101906200017a565b50620001a5929150620001a9565b5090565b5b80821115620001a55760008155600101620001aa565b600082601f830112620001d257600080fd5b81516001600160401b0380821115620001ef57620001ef62000345565b604051601f8301601f19908116603f011681019082821181831017156200021a576200021a62000345565b816040528381526020925086838588010111156200023757600080fd5b600091505b838210156200025b57858201830151818301840152908201906200023c565b838211156200026d5760008385830101525b9695505050505050565b6000806000606084860312156200028d57600080fd5b83516001600160401b0380821115620002a557600080fd5b620002b387838801620001c0565b94506020860151915080821115620002ca57600080fd5b620002d887838801620001c0565b93506040860151915080821115620002ef57600080fd5b50620002fe86828701620001c0565b9150509250925092565b600181811c908216806200031d57607f821691505b602082108114156200033f57634e487b7160e01b600052602260045260246000fd5b50919050565b634e487b7160e01b600052604160045260246000fd5b6123d1806200036b6000396000f3fe6080604052600436106101c15760003560e01c80636352211e116100f7578063a22cb46511610095578063d48e638a11610064578063d48e638a1461051a578063e8a3d48514610550578063e985e9c514610565578063f2fde38b146105ae57600080fd5b8063a22cb46514610484578063b88d4fde146104a4578063c87b56dd146104c4578063cd53d08e146104e457600080fd5b80637f77f574116100d15780637f77f574146104045780638da5cb5b14610431578063933a6f0d1461044f57806395d89b411461046f57600080fd5b80636352211e146103af57806370a08231146103cf578063715018a6146103ef57600080fd5b806323b872dd1161016457806342842e0e1161013e57806342842e0e1461032f57806342966c681461034f5780634f6ccce71461036f578063555c8b0a1461038f57600080fd5b806323b872dd146102da5780632f745c59146102fa57806334ce10c41461031a57600080fd5b8063081812fc116101a0578063081812fc1461023e578063095ea7b31461027657806318160ddd146102985780631af9cf49146102ad57600080fd5b806275a317146101c657806301ffc9a7146101ec57806306fdde031461021c575b600080fd5b6101d96101d4366004611fa4565b6105ce565b6040519081526020015b60405180910390f35b3480156101f857600080fd5b5061020c61020736600461207b565b61063c565b60405190151581526020016101e3565b34801561022857600080fd5b50610231610666565b6040516101e39190612188565b34801561024a57600080fd5b5061025e6102593660046120b5565b6106f8565b6040516001600160a01b0390911681526020016101e3565b34801561028257600080fd5b50610296610291366004612051565b610785565b005b3480156102a457600080fd5b506009546101d9565b3480156102b957600080fd5b506101d96102c83660046120b5565b6000908152600e602052604090205490565b3480156102e657600080fd5b506102966102f5366004611e50565b61089b565b34801561030657600080fd5b506101d9610315366004612051565b6108cc565b34801561032657600080fd5b506010546101d9565b34801561033b57600080fd5b5061029661034a366004611e50565b610962565b34801561035b57600080fd5b5061029661036a3660046120b5565b61097d565b34801561037b57600080fd5b506101d961038a3660046120b5565b6109d8565b34801561039b57600080fd5b506101d96103aa366004611ff7565b610a6b565b3480156103bb57600080fd5b5061025e6103ca3660046120b5565b610ab8565b3480156103db57600080fd5b506101d96103ea366004611e02565b610b2f565b3480156103fb57600080fd5b50610296610bb6565b34801561041057600080fd5b506101d961041f3660046120b5565b600e6020526000908152604090205481565b34801561043d57600080fd5b50600b546001600160a01b031661025e565b34801561045b57600080fd5b5061029661046a3660046120ce565b610c1c565b34801561047b57600080fd5b50610231610c85565b34801561049057600080fd5b5061029661049f366004611f68565b610c94565b3480156104b057600080fd5b506102966104bf366004611e8c565b610c9f565b3480156104d057600080fd5b506102316104df3660046120b5565b610cd7565b3480156104f057600080fd5b5061025e6104ff3660046120b5565b600f602052600090815260409020546001600160a01b031681565b34801561052657600080fd5b5061025e6105353660046120b5565b6000908152600f60205260409020546001600160a01b031690565b34801561055c57600080fd5b50610231610ce2565b34801561057157600080fd5b5061020c610580366004611e1d565b6001600160a01b03918216600090815260056020908152604080832093909416825291909152205460ff1690565b3480156105ba57600080fd5b506102966105c9366004611e02565b610d70565b6000806105da600d5490565b90506105ea600d80546001019055565b6105f48582610e44565b6106348185858080601f016020809104026020016040519081016040528093929190818152602001838380828437600092019190915250610e5e92505050565b949350505050565b60006001600160e01b0319821662079beb60eb1b1480610660575061066082610ee9565b92915050565b606060008054610675906122ad565b80601f01602080910402602001604051908101604052809291908181526020018280546106a1906122ad565b80156106ee5780601f106106c3576101008083540402835291602001916106ee565b820191906000526020600020905b8154815290600101906020018083116106d157829003601f168201915b5050505050905090565b600061070382610f0e565b6107695760405162461bcd60e51b815260206004820152602c60248201527f4552433732313a20617070726f76656420717565727920666f72206e6f6e657860448201526b34b9ba32b73a103a37b5b2b760a11b60648201526084015b60405180910390fd5b506000908152600460205260409020546001600160a01b031690565b600061079082610ab8565b9050806001600160a01b0316836001600160a01b031614156107fe5760405162461bcd60e51b815260206004820152602160248201527f4552433732313a20617070726f76616c20746f2063757272656e74206f776e656044820152603960f91b6064820152608401610760565b336001600160a01b038216148061081a575061081a8133610580565b61088c5760405162461bcd60e51b815260206004820152603860248201527f4552433732313a20617070726f76652063616c6c6572206973206e6f74206f7760448201527f6e6572206e6f7220617070726f76656420666f7220616c6c00000000000000006064820152608401610760565b6108968383610f2b565b505050565b6108a53382610f99565b6108c15760405162461bcd60e51b8152600401610760906121ed565b61089683838361107f565b60006108d783610b2f565b82106109395760405162461bcd60e51b815260206004820152602b60248201527f455243373231456e756d657261626c653a206f776e657220696e646578206f7560448201526a74206f6620626f756e647360a81b6064820152608401610760565b506001600160a01b03919091166000908152600760209081526040808320938352929052205490565b61089683838360405180602001604052806000815250610c9f565b803361098882610ab8565b6001600160a01b0316146109cb5760405162461bcd60e51b815260206004820152600a6024820152696f776e6572734f6e6c7960b01b6044820152606401610760565b6109d482611226565b5050565b60006109e360095490565b8210610a465760405162461bcd60e51b815260206004820152602c60248201527f455243373231456e756d657261626c653a20676c6f62616c20696e646578206f60448201526b7574206f6620626f756e647360a01b6064820152608401610760565b60098281548110610a5957610a59612359565b90600052602060002001549050919050565b600080610a798686866105ce565b6000818152600e60209081526040808320879055600f909152902080546001600160a01b0319166001600160a01b038916179055915050949350505050565b6000818152600260205260408120546001600160a01b0316806106605760405162461bcd60e51b815260206004820152602960248201527f4552433732313a206f776e657220717565727920666f72206e6f6e657869737460448201526832b73a103a37b5b2b760b91b6064820152608401610760565b60006001600160a01b038216610b9a5760405162461bcd60e51b815260206004820152602a60248201527f4552433732313a2062616c616e636520717565727920666f7220746865207a65604482015269726f206164647265737360b01b6064820152608401610760565b506001600160a01b031660009081526003602052604090205490565b600b546001600160a01b03163314610c105760405162461bcd60e51b815260206004820181905260248201527f4f776e61626c653a2063616c6c6572206973206e6f7420746865206f776e65726044820152606401610760565b610c1a600061122f565b565b6000828152600f602052604090205482906001600160a01b03163314610c725760405162461bcd60e51b815260206004820152600b60248201526a63726561746f724f6e6c7960a81b6044820152606401610760565b506000918252600e602052604090912055565b606060018054610675906122ad565b6109d4338383611281565b610ca93383610f99565b610cc55760405162461bcd60e51b8152600401610760906121ed565b610cd184848484611350565b50505050565b606061066082611383565b600c8054610cef906122ad565b80601f0160208091040260200160405190810160405280929190818152602001828054610d1b906122ad565b8015610d685780601f10610d3d57610100808354040283529160200191610d68565b820191906000526020600020905b815481529060010190602001808311610d4b57829003601f168201915b505050505081565b600b546001600160a01b03163314610dca5760405162461bcd60e51b815260206004820181905260248201527f4f776e61626c653a2063616c6c6572206973206e6f7420746865206f776e65726044820152606401610760565b6001600160a01b038116610e2f5760405162461bcd60e51b815260206004820152602660248201527f4f776e61626c653a206e6577206f776e657220697320746865207a65726f206160448201526564647265737360d01b6064820152608401610760565b610e388161122f565b50565b80546001019055565b6109d48282604051806020016040528060008152506114f2565b610e6782610f0e565b610eca5760405162461bcd60e51b815260206004820152602e60248201527f45524337323155524953746f726167653a2055524920736574206f66206e6f6e60448201526d32bc34b9ba32b73a103a37b5b2b760911b6064820152608401610760565b6000828152600660209081526040909120825161089692840190611cce565b60006001600160e01b0319821663780e9d6360e01b1480610660575061066082611525565b6000908152600260205260409020546001600160a01b0316151590565b600081815260046020526040902080546001600160a01b0319166001600160a01b0384169081179091558190610f6082610ab8565b6001600160a01b03167f8c5be1e5ebec7d5bd14f71427d1e84f3dd0314c0f7b2291e5b200ac8c7c3b92560405160405180910390a45050565b6000610fa482610f0e565b6110055760405162461bcd60e51b815260206004820152602c60248201527f4552433732313a206f70657261746f7220717565727920666f72206e6f6e657860448201526b34b9ba32b73a103a37b5b2b760a11b6064820152608401610760565b600061101083610ab8565b9050806001600160a01b0316846001600160a01b0316148061104b5750836001600160a01b0316611040846106f8565b6001600160a01b0316145b8061063457506001600160a01b0380821660009081526005602090815260408083209388168352929052205460ff16610634565b826001600160a01b031661109282610ab8565b6001600160a01b0316146110f65760405162461bcd60e51b815260206004820152602560248201527f4552433732313a207472616e736665722066726f6d20696e636f72726563742060448201526437bbb732b960d91b6064820152608401610760565b6001600160a01b0382166111585760405162461bcd60e51b8152602060048201526024808201527f4552433732313a207472616e7366657220746f20746865207a65726f206164646044820152637265737360e01b6064820152608401610760565b611163838383611575565b61116e600082610f2b565b6001600160a01b038316600090815260036020526040812080546001929061119790849061226a565b90915550506001600160a01b03821660009081526003602052604081208054600192906111c590849061223e565b909155505060008181526002602052604080822080546001600160a01b0319166001600160a01b0386811691821790925591518493918716917fddf252ad1be2c89b69c2b068fc378daa952ba7f163c4a11628f55a4df523b3ef91a4505050565b610e3881611580565b600b80546001600160a01b038381166001600160a01b0319831681179093556040519116919082907f8be0079c531659141344cd1fd0a4f28419497f9722a3daafe3b4186f6b6457e090600090a35050565b816001600160a01b0316836001600160a01b031614156112e35760405162461bcd60e51b815260206004820152601960248201527f4552433732313a20617070726f766520746f2063616c6c6572000000000000006044820152606401610760565b6001600160a01b03838116600081815260056020908152604080832094871680845294825291829020805460ff191686151590811790915591519182527f17307eab39ab6107e8899845ad3d59bd9653f200f220920489ca2b5937696c31910160405180910390a3505050565b61135b84848461107f565b611367848484846115c0565b610cd15760405162461bcd60e51b81526004016107609061219b565b606061138e82610f0e565b6113f45760405162461bcd60e51b815260206004820152603160248201527f45524337323155524953746f726167653a2055524920717565727920666f72206044820152703737b732bc34b9ba32b73a103a37b5b2b760791b6064820152608401610760565b6000828152600660205260408120805461140d906122ad565b80601f0160208091040260200160405190810160405280929190818152602001828054611439906122ad565b80156114865780601f1061145b57610100808354040283529160200191611486565b820191906000526020600020905b81548152906001019060200180831161146957829003601f168201915b5050505050905060006114a460408051602081019091526000815290565b90508051600014156114b7575092915050565b8151156114e95780826040516020016114d192919061211c565b60405160208183030381529060405292505050919050565b610634846116ca565b6114fc83836117a2565b61150960008484846115c0565b6108965760405162461bcd60e51b81526004016107609061219b565b60006001600160e01b031982166380ac58cd60e01b148061155657506001600160e01b03198216635b5e139f60e01b145b8061066057506301ffc9a760e01b6001600160e01b0319831614610660565b6108968383836118e1565b61158981611999565b600081815260066020526040902080546115a2906122ad565b159050610e38576000818152600660205260408120610e3891611d52565b60006001600160a01b0384163b156116c257604051630a85bd0160e11b81526001600160a01b0385169063150b7a029061160490339089908890889060040161214b565b602060405180830381600087803b15801561161e57600080fd5b505af192505050801561164e575060408051601f3d908101601f1916820190925261164b91810190612098565b60015b6116a8573d80801561167c576040519150601f19603f3d011682016040523d82523d6000602084013e611681565b606091505b5080516116a05760405162461bcd60e51b81526004016107609061219b565b805181602001fd5b6001600160e01b031916630a85bd0160e11b149050610634565b506001610634565b60606116d582610f0e565b6117395760405162461bcd60e51b815260206004820152602f60248201527f4552433732314d657461646174613a2055524920717565727920666f72206e6f60448201526e3732bc34b9ba32b73a103a37b5b2b760891b6064820152608401610760565b600061175060408051602081019091526000815290565b90506000815111611770576040518060200160405280600081525061179b565b8061177a84611a40565b60405160200161178b92919061211c565b6040516020818303038152906040525b9392505050565b6001600160a01b0382166117f85760405162461bcd60e51b815260206004820181905260248201527f4552433732313a206d696e7420746f20746865207a65726f20616464726573736044820152606401610760565b61180181610f0e565b1561184e5760405162461bcd60e51b815260206004820152601c60248201527f4552433732313a20746f6b656e20616c7265616479206d696e746564000000006044820152606401610760565b61185a60008383611575565b6001600160a01b038216600090815260036020526040812080546001929061188390849061223e565b909155505060008181526002602052604080822080546001600160a01b0319166001600160a01b03861690811790915590518392907fddf252ad1be2c89b69c2b068fc378daa952ba7f163c4a11628f55a4df523b3ef908290a45050565b6001600160a01b03831661193c5761193781600980546000838152600a60205260408120829055600182018355919091527f6e1540171b6c0c960b71a7020d9f60077f6af931a8bbf590da0223dacf75c7af0155565b61195f565b816001600160a01b0316836001600160a01b03161461195f5761195f8382611b3e565b6001600160a01b0382166119765761089681611bdb565b826001600160a01b0316826001600160a01b031614610896576108968282611c8a565b60006119a482610ab8565b90506119b281600084611575565b6119bd600083610f2b565b6001600160a01b03811660009081526003602052604081208054600192906119e690849061226a565b909155505060008281526002602052604080822080546001600160a01b0319169055518391906001600160a01b038416907fddf252ad1be2c89b69c2b068fc378daa952ba7f163c4a11628f55a4df523b3ef908390a45050565b606081611a645750506040805180820190915260018152600360fc1b602082015290565b8160005b8115611a8e5780611a78816122e8565b9150611a879050600a83612256565b9150611a68565b60008167ffffffffffffffff811115611aa957611aa961236f565b6040519080825280601f01601f191660200182016040528015611ad3576020820181803683370190505b5090505b841561063457611ae860018361226a565b9150611af5600a86612303565b611b0090603061223e565b60f81b818381518110611b1557611b15612359565b60200101906001600160f81b031916908160001a905350611b37600a86612256565b9450611ad7565b60006001611b4b84610b2f565b611b55919061226a565b600083815260086020526040902054909150808214611ba8576001600160a01b03841660009081526007602090815260408083208584528252808320548484528184208190558352600890915290208190555b5060009182526008602090815260408084208490556001600160a01b039094168352600781528383209183525290812055565b600954600090611bed9060019061226a565b6000838152600a602052604081205460098054939450909284908110611c1557611c15612359565b906000526020600020015490508060098381548110611c3657611c36612359565b6000918252602080832090910192909255828152600a90915260408082208490558582528120556009805480611c6e57611c6e612343565b6001900381819060005260206000200160009055905550505050565b6000611c9583610b2f565b6001600160a01b039093166000908152600760209081526040808320868452825280832085905593825260089052919091209190915550565b828054611cda906122ad565b90600052602060002090601f016020900481019282611cfc5760008555611d42565b82601f10611d1557805160ff1916838001178555611d42565b82800160010185558215611d42579182015b82811115611d42578251825591602001919060010190611d27565b50611d4e929150611d88565b5090565b508054611d5e906122ad565b6000825580601f10611d6e575050565b601f016020900490600052602060002090810190610e3891905b5b80821115611d4e5760008155600101611d89565b80356001600160a01b0381168114611db457600080fd5b919050565b60008083601f840112611dcb57600080fd5b50813567ffffffffffffffff811115611de357600080fd5b602083019150836020828501011115611dfb57600080fd5b9250929050565b600060208284031215611e1457600080fd5b61179b82611d9d565b60008060408385031215611e3057600080fd5b611e3983611d9d565b9150611e4760208401611d9d565b90509250929050565b600080600060608486031215611e6557600080fd5b611e6e84611d9d565b9250611e7c60208501611d9d565b9150604084013590509250925092565b60008060008060808587031215611ea257600080fd5b611eab85611d9d565b9350611eb960208601611d9d565b925060408501359150606085013567ffffffffffffffff80821115611edd57600080fd5b818701915087601f830112611ef157600080fd5b813581811115611f0357611f0361236f565b604051601f8201601f19908116603f01168101908382118183101715611f2b57611f2b61236f565b816040528281528a6020848701011115611f4457600080fd5b82602086016020830137600060208483010152809550505050505092959194509250565b60008060408385031215611f7b57600080fd5b611f8483611d9d565b915060208301358015158114611f9957600080fd5b809150509250929050565b600080600060408486031215611fb957600080fd5b611fc284611d9d565b9250602084013567ffffffffffffffff811115611fde57600080fd5b611fea86828701611db9565b9497909650939450505050565b6000806000806060858703121561200d57600080fd5b61201685611d9d565b9350602085013567ffffffffffffffff81111561203257600080fd5b61203e87828801611db9565b9598909750949560400135949350505050565b6000806040838503121561206457600080fd5b61206d83611d9d565b946020939093013593505050565b60006020828403121561208d57600080fd5b813561179b81612385565b6000602082840312156120aa57600080fd5b815161179b81612385565b6000602082840312156120c757600080fd5b5035919050565b600080604083850312156120e157600080fd5b50508035926020909101359150565b60008151808452612108816020860160208601612281565b601f01601f19169290920160200192915050565b6000835161212e818460208801612281565b835190830190612142818360208801612281565b01949350505050565b6001600160a01b038581168252841660208201526040810183905260806060820181905260009061217e908301846120f0565b9695505050505050565b60208152600061179b60208301846120f0565b60208082526032908201527f4552433732313a207472616e7366657220746f206e6f6e20455243373231526560408201527131b2b4bb32b91034b6b83632b6b2b73a32b960711b606082015260800190565b60208082526031908201527f4552433732313a207472616e736665722063616c6c6572206973206e6f74206f6040820152701ddb995c881b9bdc88185c1c1c9bdd9959607a1b606082015260800190565b6000821982111561225157612251612317565b500190565b6000826122655761226561232d565b500490565b60008282101561227c5761227c612317565b500390565b60005b8381101561229c578181015183820152602001612284565b83811115610cd15750506000910152565b600181811c908216806122c157607f821691505b602082108114156122e257634e487b7160e01b600052602260045260246000fd5b50919050565b60006000198214156122fc576122fc612317565b5060010190565b6000826123125761231261232d565b500690565b634e487b7160e01b600052601160045260246000fd5b634e487b7160e01b600052601260045260246000fd5b634e487b7160e01b600052603160045260246000fd5b634e487b7160e01b600052603260045260246000fd5b634e487b7160e01b600052604160045260246000fd5b6001600160e01b031981168114610e3857600080fdfea264697066735822122003d440f9cd9502fa20a3d773815d4a5006443d1c7dd96256c08077418234877464736f6c63430008070033",
    "linkReferences": {},
    "deployedLinkReferences": {}
}